:100000000C945D000C9485000C9485000C94850084
:100010000C9485000C9485000C9485000C9485004C
:100020000C9485000C9485000C9485000C940305B9
:100030000C9485000C9485000C9485000C9485002C
:100040000C946C020C9485000C94DC020C94B602A7
:100050000C9485000C9485000C9485000C9485000C
:100060000C9485000C94850000000008000201003B
:100070000003040700000000000000000000000072
:10008000250028002B0000000000240027002A0083
:10009000040404040404040402020202020203032E
:1000A0000303030301020408102040800102040836
:1000B0001020010204081020C11211241FBECFEF2E
:1000C000D8E0DEBFCDBF11E0A0E0B1E0EEE7F7E29F
:1000D00002C005900D92AC31B107D9F722E0ACE136
:1000E000B1E001C01D92A334B207E1F710E0CDE505
:1000F000D0E004C02197FE010E94B213CC35D10795
:10010000C9F70E947A0F0C94BD130C9400003FB7FE
:10011000F89480912A0190912B01A0912C01B0912B
:100120002D0126B5A89B05C02F3F19F00196A11DF2
:10013000B11D3FBFBA2FA92F982F8827820F911D7D
:10014000A11DB11DBC01CD0142E0660F771F881FC4
:10015000991F4A95D1F70895CF92DF92EF92FF92BF
:100160000F931F93CF93DF936C017A018B01C0E053
:10017000D0E0CE15DF0581F0D8016D918D01D6015B
:10018000ED91FC910190F081E02DC6010995892B3C
:1001900011F02196EECF7E01C701DF91CF911F9123
:1001A0000F91FF90EF90DF90CF900895089580E039
:1001B00090E00895FC01538D448D252F30E0842F6D
:1001C00090E0821B930B541710F0CF96089501977F
:1001D0000895FC01918D828D981761F0828DDF0169
:1001E000A80FB11D5D968C91928D9F5F9F73928F2A
:1001F00090E008958FEF9FEF0895FC01918D828D1F
:10020000981731F0828DE80FF11D858D90E00895EB
:100210008FEF9FEF0895FC01918D228D892F90E043
:10022000805C9F4F821B91098F73992708958CE7FB
:1002300091E00E940B0121E0892B09F420E0822F3C
:100240000895FC01848DDF01A80FB11DA35ABF4F93
:100250002C91848D90E001968F739927848FA689C5
:10026000B7892C93A089B1898C91837080648C9319
:10027000938D848D981306C00288F389E02D8081C8
:100280008F7D80830895EF92FF920F931F93CF93FA
:10029000DF93EC0181E0888F9B8D8C8D981305C0D6
:1002A000E889F989808185FD26C0F62E0B8D10E046
:1002B0000F5F1F4F0F731127E02E8C8DE8120CC0BB
:1002C0000FB607FCFACFE889F989808185FFF5CF61
:1002D000CE010E942101F1CF8B8DFE01E80FF11DAF
:1002E000E35AFF4FF0829FB7F8940B8FEA89FB899E
:1002F000808180620AC09FB7F894EE89FF8960838D
:10030000E889F98980818370806480839FBF81E060
:1003100090E0DF91CF911F910F91FF90EF900895A2
:10032000CF93DF93EC01888D8823C9F0EA89FB899C
:10033000808185FD05C0A889B9898C9186FD0FC093
:100340000FB607FCF5CF808185FFF2CFA889B98968
:100350008C9185FFEDCFCE010E942101E7CFDF9187
:10036000CF91089580E090E0892B29F00E94170139
:1003700081110C94000008950E94B813EF92FF922F
:100380000F931F93CF93DF937C018C01E801CE196B
:10039000DF09F80181918F01882319F00E94130F62
:1003A000F5CF80E00E94130FCF5FD1E0DC0FC37068
:1003B00029F080E00E94130FCD2FF7CFDF91CF916E
:1003C0001F910F91FF90EF90089590E0FC01E85984
:1003D000FF4F2491FC01EC55FF4F3491FC01E05795
:1003E000FF4FE491EE2309F43CC0222339F123307E
:1003F00091F038F42130A9F0223001F584B58F7DD9
:1004000012C0273091F02830A1F02430B9F4809147
:1004100080008F7D03C0809180008F778093800063
:100420000DC084B58F7784BD09C08091B0008F77EF
:1004300003C08091B0008F7D8093B000F0E0EE0F9C
:10044000FF1FE458FF4FA591B4919FB7F894611135
:1004500004C08C913095382302C0EC913E2B3C9324
:100460009FBF08958F929F92AF92BF92CF92DF92DB
:10047000EF92FF926B017C010E9487004B015C01AF
:10048000C114D104E104F104F1F00E948700DC0101
:10049000CB0188199909AA09BB09883E9340A10597
:1004A000B10570F321E0C21AD108E108F10888EE25
:1004B000880E83E0981EA11CB11CC114D104E10474
:1004C000F10419F7DDCFFF90EF90DF90CF90BF9050
:1004D000AF909F908F9008951F920F920FB60F923A
:1004E00011242F933F938F939F93AF93BF9380914A
:1004F000260190912701A0912801B0912901309106
:10050000250123E0230F2D3720F40196A11DB11DF5
:1005100005C026E8230F0296A11DB11D20932501D9
:100520008093260190932701A0932801B09329017D
:1005300080912A0190912B01A0912C01B0912D0165
:100540000196A11DB11D80932A0190932B01A093C8
:100550002C01B0932D01BF91AF919F918F913F914D
:100560002F910F900FBE0F901F9018951F920F9212
:100570000FB60F9211242F933F934F935F936F9376
:100580007F938F939F93AF93BF93EF93FF938CE7EA
:1005900091E00E942101FF91EF91BF91AF919F9156
:1005A0008F917F916F915F914F913F912F910F901C
:1005B0000FBE0F901F9018951F920F920FB60F92BB
:1005C00011242F938F939F93EF93FF93E0918C01CE
:1005D000F0918D018081E0919201F091930182FD73
:1005E00012C09081809195018F5F8F732091960149
:1005F000821751F0E0919501F0E0E458FE4F958F9D
:100600008093950101C08081FF91EF919F918F911F
:100610002F910F900FBE0F901F9018958AE00E94A7
:10062000510E61E08AE00E94E50185E00E94510ED2
:1006300061E085E00C94E501682F7FEF8FEF9FEF7D
:100640000C94350F0C94350FCF93C92F0E94130FC4
:100650008C2FCF910C94130F61E08AE00C94E5018C
:100660009CB59C7F282F2370922B9CBD2DB582FBBF
:10067000992790F9822F8E7F892B8DBD08958EBD8D
:1006800000000DB407FEFDCF8EB508958FEF0E94D8
:100690003F0387FDFBCF089561E00E94E5018FEFE6
:1006A0000C943F03CF93C82F60E08AE00E94E501DD
:1006B0008C2F0E943F0380E00E943F0380E00E9455
:1006C0003F0361E08AE0CF910C94E5011F93CF9343
:1006D000DF93EB01182F60E08AE00E94E501812F93
:1006E00080680E943F038D2F0E943F038C2FDF9173
:1006F000CF911F910C943F03CF93DF93EC010E94A5
:100700002C0380913101811105C080E090E8A0E1C7
:10071000B0E004C080E090E8A0E3B0E02881398137
:100720003F70BC01CD01620F731F811D911DDF91D0
:10073000CF910C946603CF93DF93D42FC52F0E94E3
:1007400066038D2F0E943F038C2F0E943F03DF9191
:10075000CF910C942C03462F50E0440F551F482B8B
:1007600080913101811105C060E974E280E190E07F
:1007700004C064E970E280E390E00C949B031F9353
:10078000CF93DF93FC01262F32813617C1F03181E0
:1007900043E050E0461B5109432B309131013111A8
:1007A00005C06CE874E280E190E004C060E970E2AA
:1007B00080E390E0122FEF010E949B031A83DF91E8
:1007C000CF911F910895CF93DF93EC0160E00E94D9
:1007D000BF0361E088810E94AB0361E0CE010E940B
:1007E000BF0361E08881DF91CF910C94AB03CF937D
:1007F000DF93EC0161E00E94BF0361E088810E9409
:10080000AB0360E0CE010E94BF0360E08881DF910E
:10081000CF910C94AB031F93CF93DF93EB01182F71
:1008200060E08AE00E94E501812F0E943F038D2F46
:100830000E943F038C2FDF91CF911F910C943F03B7
:100840008F929F92AF92BF92EF92FF920F931F935E
:10085000CF93DF937C014A015B0189010E942C0345
:10086000C501B4010E940B0480E00E943F03E70130
:100870000E0D1F1DC017D10729F080E00E943F0315
:100880008993F8CF88E791E0DF91CF911F910F9185
:10089000FF90EF90BF90AF909F908F900C947C034F
:1008A000CF93DF930E940B0480E00E943F0380E01F
:1008B0000E943F03C82FD0E080E00E943F03D82B66
:1008C0000E942C03CE01DF91CF91089580913101D8
:1008D000811105C064EE74E280E190E004C068EF2D
:1008E00070E280E390E00E9450048F3F2FE0920777
:1008F000C9F480E00E94C40580E00E941C030E94AD
:10090000700E60E070E085E692E00E94220367E0EE
:1009100070E080E096E20E9422030E94680F0E942D
:100920009F0EFFCF08950F931F93CF93DF93EC019A
:1009300061E00E94BF0361E088810E94AB03809167
:100940003101811105C060E974E280E190E004C0EA
:1009500064E970E280E390E00E9450048C0160E062
:1009600088810E94AB03C80181709927DF91CF91E4
:100970001F910F910895FF920F931F93CF93DF93D1
:100980008C01F62ED8E0C0E0C8010E949304CC0F81
:10099000C82BD150C9F76F2DC8010E94BF0361E079
:1009A000F80180810E94AB0360E0F80180810E9421
:1009B000AB038C2F90E0DF91CF911F910F91FF90AF
:1009C00008950F931F93CF93DF93EC01062F18E048
:1009D000602F70E0660F672F661F770BCE010E94B5
:1009E000BF0361E088810E94AB0360E088810E94C0
:1009F000AB03000F115061F7CE01DF91CF911F9132
:100A00000F910C9493041F920F920FB60F92112422
:100A10002F933F934F935F936F937F938F939F9306
:100A2000AF93BF93EF93FF9380911C0187FF05C0A5
:100A300010928500109284001BC020911C01022E90
:100A4000000C330B80913D0290E02817390784F4A5
:100A500080911C01082E000C990BFC01EE0FFF1F6A
:100A60008E0F9F1FFC01E75EFD4F808186FD15C044
:100A700080911C018F5F80931C0120911C01022E2C
:100A8000000C330B80913D0290E028173907C4F425
:100A900080911C018C3064F113C080911C01082EE0
:100AA000000C990BFC01EE0FFF1F8E0F9F1FFC0126
:100AB000E75EFD4F808160E08F730E94E501D8CF33
:100AC0008091840090918500049680349C4918F4AC
:100AD00080E49CE905C08091840090918500049693
:100AE00090938900809388008FEF80931C013BC016
:100AF000209184003091850080911C01082E000C0B
:100B0000990BFC01EE0FFF1F8E0F9F1FFC01E75E8C
:100B1000FD4F81819281820F931F90938900809372
:100B2000880080911C01082E000C990BFC01EE0F2F
:100B3000FF1F8E0F9F1FFC01E75EFD4F808186FF28
:100B400012C080911C01082E000C990BFC01EE0FC5
:100B5000FF1F8E0F9F1FFC01E75EFD4F808161E04C
:100B60008F730E94E501FF91EF91BF91AF919F912B
:100B70008F917F916F915F914F913F912F910F9046
:100B80000FBE0F901F9018954F925F926F927F92B9
:100B90008F929F92AF92BF92DF92EF92FF920F934C
:100BA0001F93CF93DF93CDB7DEB7C358D1090FB6EC
:100BB000F894DEBF0FBECDBFD82E0E940E031FB724
:100BC000F89480913001811124C0EAE9F0E0849129
:100BD000EEEAF0E09491E82FF0E0EE0FFF1FEA5705
:100BE000FF4FA591B491EC91E92321F461E08AE0F3
:100BF0000E94E5018AE00E94510E8CB580618CBD97
:100C00008CB580648CBD8DE00E94510E8BE00E94FB
:100C1000510E809130018F5F809330011FBF84E0BF
:100C20000E94300381E08DBD82E40E94520381E680
:100C30000E94520380E00E94520388E40E94520303
:100C400089E40E94520388E60E945203D2FE51C2F8
:100C50000E940E0385E0809351010E94510E82E0B4
:100C60000E943003809151010E944C0362E370E0C6
:100C700080E090E00E9432021BE0115021F08FEFE3
:100C80000E943F03FACF10922F0110922E0125E906
:100C900040E050E0BA0180E00E94B30D8FEF0E9467
:100CA0003F03182F87FF0DC080912E0190912F01D7
:100CB000019690932F0180932E01883E934071F707
:100CC00018C2809151010E944C038FEF0E943F0394
:100CD0001130E9F627E84AEA51E060E070E088E088
:100CE0000E94B30D0E944603182F8FEF0E943F030E
:100CF0008FEF0E943F038FEF0E943F038FEF0E9410
:100D00003F03809151010E944C0310922F011092D9
:100D10002E01113031F4812C912CA12C20E4B22E23
:100D200003C0812C912C540125E940E050E0BA0128
:100D300087E30E94B30D0E94A50D25E9B501A4012A
:100D400089E20E94B30D0E94A50D80FF14C080911E
:100D50002E0190912F01019690932F0180932E01E7
:100D60008C32914009F4C5C161E070E080E090E010
:100D70000E943202D9CF113091F50AE010E0812CA7
:100D8000912C540125E940E050E0BA018AE30E9429
:100D9000B30D0E94460394E0F92EBA2CA92C982C8E
:100DA00088248FEF0E943F03882AFA94F110F5CF30
:100DB0008FEF0E943F03809151010E944C0301502C
:100DC000110901F7D501C4011EE1B695A7959795C4
:100DD00087951A95D1F781708093520102C01092C5
:100DE000520184E00E94300311E01DBD21E030E09B
:100DF00042EC51E060E070E0CE0101960E94E30D0C
:100E000089818B50823018F01092530102C01093E8
:100E1000530124E030E046EC51E060E070E0CE01A8
:100E200001960E94E30D49815A816B817C81A9E082
:100E3000440F551F661F771FAA95D1F74093620193
:100E4000509363016093640170936501435F5F4F4A
:100E50006F4F7F4F21E030E0CE0101960E94E30DFD
:100E6000898190E0909355018093540140916201F3
:100E7000509163016091640170916501425F5F4F21
:100E80006F4F7F4F22E030E0CE0101960E94E30DCC
:100E900089819A81909357018093560180915401E2
:100EA000880F10925C0180935D0180915301409105
:100EB000620150916301609164017091650181113B
:100EC00087C04F5E5F4F6F4F7F4F22E030E0CE0113
:100ED00001960E94E30D89819A8190935901809334
:100EE00058014091620150916301609164017091D9
:100EF00065014A5E5F4F6F4F7F4F22E030E0CE01C9
:100F000001960E94E30D49815A8150935B01409301
:100F10005A018091560190915701A0E0B0E029E07C
:100F2000880F991FAA1FBB1F2A95D1F70091620154
:100F3000109163012091640130916501800F911F30
:100F4000A21FB31F8093660190936701A09368016D
:100F5000B093690160E070E03AE0440F551F661FEE
:100F6000771F3A95D1F7840F951FA61FB71F80935F
:100F70006A0190936B01A0936C01B0936D01409155
:100F800058015091590120915C0130915D0160E060
:100F900070E0E5E0440F551F661F771FEA95D1F713
:100FA000890120E030E0000F111F221F331F401B7A
:100FB000510B620B730B840F951FA61FB71F8093F5
:100FC0006E0190936F01A0937001B093710191C075
:100FD0004C5D5F4F6F4F7F4F24E030E0CE010196B4
:100FE0000E94E30D89809A80AB80BC8040916201B1
:100FF000509163016091640170916501445D5F4FA0
:101000006F4F7F4F24E030E0CE0101960E94E30D48
:1010100009811A812B813C8100935E0110935F014D
:10102000209360013093610180916201909163018E
:10103000A0916401B091650179E0B695A795979567
:1010400087957A95D1F76091560170915701860F77
:10105000971FA11DB11D880C991CAA1CBB1C880ED2
:10106000991EAA1EBB1EF9E0880F991FAA1FBB1F5D
:10107000FA95D1F78093660190936701A093680178
:10108000B0936901E0915401F0915501A9019801D3
:101090002250310941095109DF010E945A13DC0134
:1010A000CB01880D991DAA1DBB1D19E0880F991F42
:1010B000AA1FBB1F1A95D1F780936A0190936B0109
:1010C000A0936C01B0936D01EE0FFF1F8E1A9F0A63
:1010D000A108B10889E0880C991CAA1CBB1C8A9540
:1010E000D1F780926E0190926F01A0927001B09240
:1010F000710160E070E08CE090E00E945004883064
:10110000C1F760E070E08CE090E00E94500492959E
:101110009F709093310110927901109278018CEFB9
:101120009FE090937B0180937A0188E791E00E9491
:101130007C0380913101811105C064EC74E280E18F
:1011400090E004C064ED70E280E390E040E00E9433
:10115000320D80913101811105C06CE874E280E1AB
:1011600090E004C060E970E280E390E043E80E9410
:10117000320D80913101811108C060E9862E64E250
:10118000962E60E1A62EB12C07C054E9852E50E2C0
:10119000952E50E3A52EB12C0E942C03C501B4015D
:1011A0000E940B0480E00E943F0380E00E943F0306
:1011B000182F88E791E00E947C03412F40688091BE
:1011C0003101811105C060E974E280E190E004C062
:1011D00064E970E280E390E00E94320DCE01019656
:1011E0007C0180E8F70111928A95E9F70E942C03AF
:1011F00080913101811105C060E974E280E190E0E5
:1012000004C064E970E280E390E00E9450048E0123
:101210000F571F4F8C7FF80180838091310181111E
:1012200005C06CE874E280E190E004C060E970E21F
:1012300080E390E00E9450048C7FF801818382E07B
:101240008283C8010E94F70361E070E0C8010E9438
:10125000BB04C8010E94F703C8010E94E303C80150
:101260000E94F70360EAC8010E94E104892B71F52E
:1012700060E0C8010E94E104892B41F5C8010E9489
:10128000F70361EAC8010E94E104892BF9F44701E0
:10129000A12CB12C61E070E0FFE7AF16B10411F0B2
:1012A00060E070E0C8010E94BB04F40181934F012B
:1012B000FFEFAF1ABF0A20E8A216B10459F7C80120
:1012C0000E94E30388E791E00E947C038A818F3FBC
:1012D00009F06CC08B81813009F068C08D2D8C7F46
:1012E000D82E8C8181FF09C00E942C0384E40E94C7
:1012F000520388E791E00E947C0380917A019091EB
:101300007B018C37910520F48CE790E00E94CB0E96
:10131000809178019091790184589F4F9093790141
:101320008093780180917A0190917B018C5791098B
:1013300090937B0180937A015E0199E7A90EB11C1D
:10134000F70184810E943F03F70185810E943F03DA
:10135000F70186810E943F03F70187810E943F03C6
:10136000F70180850E943F03F70181850E943F03BA
:10137000F70182850E943F03F70183850E943F03A6
:10138000F8E0EF0EF11CAE14BF04D1F67E012DE79C
:10139000E20EF11C0E151F0531F0F70181917F015E
:1013A0000E943F03F7CF0E949F0E15C1809131012B
:1013B000811105C068E274E280E190E004C06CE253
:1013C00070E280E390E024E833E040E050E00E94E7
:1013D000070D80913101811105C06CE274E280E15A
:1013E00090E004C060E370E280E390E02BE230E044
:1013F00040E050E00E94070D80913101811105C04D
:1014000060E374E280E190E004C064E370E280E3B2
:1014100090E020E233E040E050E00E94070D809130
:101420003101811105C064E374E280E190E004C001
:1014300068E370E280E390E020E030E0A9010E94E0
:10144000070D80913101811105C068E374E280E1EC
:1014500090E004C06CE370E280E390E029E230E0C9
:1014600040E050E00E94070D80913101811105C0DC
:101470006CE374E280E190E004C060E470E280E339
:1014800090E024EF31E040E050E00E94070D8091B1
:101490003101811105C060E474E280E190E004C094
:1014A00064E470E280E390E02CE030E040E050E063
:1014B0000E94070D80913101811105C064E474E23E
:1014C00080E190E004C068E470E280E390E020EE08
:1014D00031E040E050E00E94070D80913101811120
:1014E00005C068E474E280E190E004C06CE470E25E
:1014F00080E390E020E030E0A9010E94070D809198
:101500003101811105C06CE474E280E190E004C017
:1015100060E570E280E390E02AE030E040E050E0F7
:101520000E94070D80913101811105C06CE574E2C4
:1015300080E190E004C060E670E280E390E021E0AA
:1015400030E040E050E00E94070D809131018111B0
:1015500005C068E674E280E190E004C06CE670E2E9
:1015600080E390E021E030E040E050E00E94070D91
:1015700080913101811105C06CE674E280E190E058
:1015800004C060E770E280E390E023E030E040E0F8
:1015900050E00E94070D80913101811105C064E582
:1015A00074E280E190E004C068E570E280E390E0DE
:1015B00040E00E94320D80913101811105C060E64A
:1015C00074E280E190E004C064E670E280E390E0C1
:1015D00040E00E94320D80913101811105C060E32D
:1015E00074E280E190E004C064E370E280E390E0A4
:1015F0000E947F0D909333018093320180913101DD
:10160000811105C064E474E280E190E004C068E404
:1016100070E280E390E00E947F0D9093350180930B
:101620003401109236011092370110923801109255
:101630003901812C912C5401C501B40195600E949F
:10164000220360E070E080E098E20E94220360E004
:1016500070E080E099E20E942203FFEF8F1A9F0A58
:10166000AF0ABF0A20E282169104A104B10421F757
:1016700067E070E080E096E20E9422030E94680F1B
:1016800067E070E080E096E20E9422030E94680F0B
:1016900067E070E080E096E20E9422030E94680FFB
:1016A00080913101811108C044EC842E44E2942ED3
:1016B00040E1A42EB12C07C034ED832E30E2932EEE
:1016C00030E3A32EB12C8AE10E941C03C501B401B2
:1016D0000E94220364E070E080E090E00E94220318
:1016E00060E870E080E090E00E9422030E94700EAB
:1016F00080E090E00E94CB0ED0FEB3C080E090E08E
:101700000E9425138C3709F484C080E00E941C03DA
:101710000E94700E67E070E080E096E20E94220373
:1017200060E07FEF8FEF94E00E94220365E570E0B8
:1017300080E090E10E9422036FEF70E080E090E192
:101740000E9422036FEF7FEF8FEF94E00E9422034D
:1017500089E00E941C036FEF7FEF8FEF90E00E9403
:1017600022038AE00E941C0360E070E08FEF90E0AB
:101770000E94220385E10E941C038FEF0E941C033C
:101780000E949F0E86E20E941C0380E00E941C03C0
:1017900080E090E00E94CB0E812C912C540180912E
:1017A0003101811105C08CE195E2A0E1B0E004C0F7
:1017B00080E591E2A0E3B0E02C013D01480C591C0A
:1017C0006A1C7B1C0E942C03C301B2010E940B0403
:1017D00080E00E943F0380E00E943F03182F88E7CB
:1017E00091E00E947C03C4010196612F0E942D1399
:1017F0008FEF881A980AA80AB80A98E18916910406
:10180000A104B10461F66CE780E090E00E942D1322
:1018100028C0812C912C5401C40101960E942513EB
:10182000482F80913101811105C08CE195E2A0E142
:10183000B0E004C080E591E2A0E3B0E0BC01CD01DE
:10184000680D791D8A1D9B1D0E94320DEFEF8E1AC7
:101850009E0AAE0ABE0AF8E18F169104A104B104F3
:10186000D9F680913101811108C024E0822E25E251
:10187000922E20E1A22EB12C07C098E1892E91E290
:10188000992E90E3A92EB12C0E942C03C501B4011E
:101890000E94660380EB0E943F0384E00E943F03A6
:1018A00088E791E00E947C0387E797E7DC0180935B
:1018B000720190937301A0937401B0937501D1FEEE
:1018C00062C0F12C0FE114EF80913101811105C04C
:1018D00068E074E280E190E004C068E070E280E3D8
:1018E00090E00E944C0D2B013C01C8010197F1F7DB
:1018F00080913101811105C068E074E280E190E0DF
:1019000004C068E070E280E390E00E944C0D4B015F
:101910005C0184189508A608B70886E0880C991C15
:10192000AA1CBB1C8A95D1F720E8821627E39206F1
:1019300021E8A20623E0B20678F4809131018111FA
:101940001DC06CE675E280E190E04F2D0E94320DE3
:10195000F3948FE1F812B8CF80913101811105C065
:101960006CE074E280E190E004C06CE070E280E33F
:1019700090E0A50194010E94070D05C060E871E2A6
:1019800080E390E0E2CFCD57DF4F0FB6F894DEBF93
:101990000FBECDBFDF91CF911F910F91FF90EF90C0
:1019A000DF90BF90AF909F908F907F906F905F90EF
:1019B0004F900895AF92BF92CF92DF92EF92FF9235
:1019C0000F93CF93DF935C016B017A01E9018CE205
:1019D0000E941C03C5010E942403C6010E94240327
:1019E000C7010E942403CE010E942403802F90E0AF
:1019F0000E94240380E090E0DF91CF910F91FF904F
:101A0000EF90DF90CF90BF90AF900C942403CF92D3
:101A1000DF92EF92FF920F931F93CF93DF936B01AF
:101A20007C018901D42FC52F0E942C03C701B60168
:101A30000E946603802F0E943F03812F0E943F0374
:101A40008D2F0E943F038C2F0E943F0388E791E077
:101A5000DF91CF911F910F91FF90EF90DF90CF908A
:101A60000C947C03CF92DF92EF92FF92CF936B01A5
:101A70007C01C42F0E942C03C701B6010E9466039B
:101A80008C2F0E943F0388E791E0CF91FF90EF9069
:101A9000DF90CF900C947C03CF92DF92EF92FF9275
:101AA0000F931F93CF93DF936B017C010E942C0354
:101AB000C701B6010E940B0480E00E943F0380E052
:101AC0000E943F03082F80E00E943F03182F80E010
:101AD0000E943F03D82F80E00E943F03C82F88E771
:101AE00091E00E947C03B8018D2F9C2FDF91CF9154
:101AF0001F910F91FF90EF90DF90CF900895CF92BC
:101B0000DF92EF92FF92CF93DF936B017C010E94F3
:101B10002C03C701B6010E940B0480E00E943F0322
:101B200080E00E943F03C82FD0E080E00E943F0386
:101B3000D82B88E791E00E947C03CE01DF91CF9102
:101B4000FF90EF90DF90CF900895CF930E944603CF
:101B5000C82F809151010E944C038FEF0E943F03D8
:101B60008C2FCF910895EF92FF920F931F93CF93F5
:101B7000DF93E82ED42F152F062FF72EC22F60E00B
:101B8000809151010E94E50161E070E080E090E009
:101B90000E9432028E2D80640E943F038F2D0E948E
:101BA0003F03802F0E943F03812F0E943F038D2F10
:101BB0000E943F038C2FDF91CF911F910F91FF90D7
:101BC000EF900C943F038F929F92AF92BF92CF926F
:101BD000DF92EF92FF920F931F93CF93DF937C01DD
:101BE0004A015B0169018091520125E9882341F096
:101BF00089E076956795579547958A95D1F702C004
:101C000044275E7F81E10E94B30D0E94A50D60E034
:101C1000809151010E94E50161E070E080E090E078
:101C20000E9432028FEF0E943F038E3FD9F784015A
:101C30001170C0E0D0E00C171D0729F08FEF0E9453
:101C40003F032196F8CFE701EC0CFD1CCE15DF0514
:101C500049F4E12CF12CC2E0D2E0CC19DD09C01B23
:101C6000D10B05C08FEF0E943F038993EFCFEC1695
:101C7000FD0638F48FEF0E943F038FEFE81AF80A51
:101C8000F6CF80915101DF91CF911F910F91FF907D
:101C9000EF90DF90CF90BF90AF909F908F900C947B
:101CA0004C0390E0FC01EC55FF4F2491FC01E05700
:101CB000FF4F8491882399F090E0880F991FFC01D1
:101CC000EA57FF4FA591B491FC01E458FF4F85916D
:101CD00094918FB7F894EC91E22BEC938FBF089519
:101CE000CF9386E30E941C0360E070E0CB010E946A
:101CF0002203C0913101C11105C060E374E280E1AB
:101D000090E004C064E370E280E390E00E947F0D05
:101D10009093330180933201C11105C064E474E2F1
:101D200080E190E004C068E470E280E390E00E940B
:101D30007F0D9093350180933401CF910895809168
:101D40007801909179018C7F9F70909379018093B5
:101D500078010E942C034091780150917901809183
:101D60003101811105C068EE74E280E190E004C0A9
:101D70006CEF70E280E390E00E949B030E94660497
:101D8000209178013091790182179307B9F788E79C
:101D900091E00C947C03EF92FF920F931F93CF93EB
:101DA000DF938C0180917801909179019F709093DD
:101DB0007901809378010E942C0340917801509121
:101DC00079014C7F5F7080913101811105C068EE0F
:101DD00074E280E190E004C06CEF70E280E390E098
:101DE0000E949B038CEFE82E8FE0F82EC0917801C3
:101DF000D09179010E946604C81BD90BDF70C7011E
:101E00008C1B9D0B90937B0180937A018017910727
:101E100068F388E791E0DF91CF911F910F91FF90D8
:101E2000EF900C947C03CF93C82F80917A0190910E
:101E30007B01892B21F481E090E00E94CB0E809100
:101E400078019091790101969093790180937801BE
:101E500080917A0190917B01019790937B0180930F
:101E60007A018C2FCF910C943F030F931F93CF9344
:101E7000DF938B01D82FC92F80917A0190917B013C
:101E8000049720F484E090E00E94CB0E80917801CA
:101E900090917901049690937901809378018091D3
:101EA0007A0190917B01049790937B0180937A0152
:101EB000802F0E943F03812F0E943F038D2F0E949D
:101EC0003F038C2FDF91CF911F910F910C943F0313
:101ED00060E070E0CB010E94220381E00E941C03BD
:101EE00086E20E941C0380E00E941C0380E090E0D8
:101EF0000C94CB0ECF93DF9300D01F92CDB7DEB7FB
:101F0000789484B5826084BD84B5816084BD85B5D4
:101F1000826085BD85B5816085BD80916E008160E0
:101F200080936E0010928100809181008260809386
:101F30008100809181008160809381008091800088
:101F40008160809380008091B10084608093B100B3
:101F50008091B00081608093B00080917A008460AD
:101F600080937A0080917A00826080937A008091D9
:101F70007A00816080937A0080917A0080688093F3
:101F80007A001092C10080913E028C3008F050C05F
:101F90008FE00E94510E80913E02E82FF0E09F01F9
:101FA000220F331FE20FF31FE75EFD4F9081907CFD
:101FB0009F60908310923F02109240026CE00E945A
:101FC000A6132CE0829FB001112440E050E09B0159
:101FD000240F351FF901EE0FFF1F2E0F3F1FF901D0
:101FE000E75EFD4F908196FD16C04F5F5F4F4C300E
:101FF000510569F781110FC01092800082E0809333
:1020000081001092850010928400B19A80916F0037
:10201000826080936F00E0913E02F0E0CF01880F74
:10202000991FE80FF91FE75EFD4F80818064808370
:102030008EE00E94510E88E00E94510E61E088E01F
:102040000E94E50164E170E080E090E00E943202CD
:1020500060E088E00E94E50164E170E080E090E0EB
:102060000E94320261E088E00E94E50164E170E0D4
:1020700080E090E00E94320287E00E94C4052224A2
:102080002A94322C88248A94982CA12CB12C14EBFD
:10209000C12ED12CE12CF12C0E949F0E8091310198
:1020A000811105C040E050E960E170E004C040E00B
:1020B00050E960E370E024E030E08AE391E00E94C0
:1020C000200480913101811105C04CE055E260E1AE
:1020D00070E004C040E251E260E370E02DE030E0E7
:1020E0008EE391E00E94200480913101811105C0AE
:1020F00048E754E260E170E004C04CE750E260E37E
:1021000070E021E030E08BE491E00E9420048091B7
:1021100044019091450121E0811530E8930709F4CD
:1021200020E020934C012091420130914301E4E0F2
:10213000220F331FEA95E1F7F4E0880F991FFA9513
:10214000E1F790934E0180934D013093500120931D
:102150004F0180913A0190913B019927893C91056B
:10216000D1F060F4883C9105A1F580913C019091FB
:102170003D0190932401809323012FC08A3C910557
:1021800099F08B3C910529F540E051E050931E01F8
:1021900040931D0122C080913C0190913D0190939C
:1021A00022018093210119C080913C0190913D0151
:1021B00097FF06C03092200120921F0161E005C008
:1021C0001092200110921F0160E08EE00E94E50154
:1021D00004C010921E0110921D0150913E025983BD
:1021E0005C3008F065C0209123013091240180917A
:1021F000400208E512E0081B110987FD1395000F46
:10220000111F000F111F80913F0248E850E0481B4A
:10221000510987FD5395440F551F440F551F5B838C
:102220004A832A01550F66087708A4EBB0E00E94A4
:102230008713A50194010E943B13C801012E000CD5
:10224000AA0BBB0BBC01CD0164197509860997095E
:102250000E949613A70196010E943B13420E531E43
:10226000641E751E2A813B81421653063CF01B8377
:102270000A834016510614F45B824A824A815B81CC
:1022800042505109440F551F5B834A834FB7F8945E
:102290005981852F90E09C01220F331F820F931FDD
:1022A000FC01E75EFD4F8A819B81928381834FBF52
:1022B0008BE00E941C0380E090E00E94240380E0F9
:1022C00090E00E9424036FEF70E080E090E00E94B5
:1022D000220380E090E00E94240387E592E00E94C0
:1022E000240360E07FEF80E090E00E94220368EC2E
:1022F00070E080E093E00E9422032091230130915E
:1023000024013B832A838DE20E941C038CEB92E024
:102310000E9424038EE591E00E9424038AE590E068
:102320000E94240380E090E00E9424038A819B8124
:102330000E94240380E090E00E94240308EC21E046
:1023400030E041E050E06EE571E08CEB92E00E94FD
:10235000DA0C4090230150902401612C712C8EE204
:102360000E941C038CEB92E00E9424038EE591E016
:102370000E9424038BE190E00E94240380E090E01F
:102380000E942403C301B2010E94220389E00E943B
:102390001C0360E079EB89EB90E00E94220369EC7A
:1023A00070E080E093E00E9422034091210150916F
:1023B00022015B834A8380E10E941C0380E190E05C
:1023C0000E94240380E190E00E94240388EC90E0C6
:1023D0000E94240384E190E00E94240380E090E0C6
:1023E0000E9424038A819B810E9424038FEF9FEF28
:1023F0000E94240380E090E00E94240309EC24E181
:1024000030E048EC50E060E170E080E190E00E9454
:10241000DA0C6AEC70E080E093E00E942203809185
:102420001F01909120019B838A8382E10E941C03FB
:102430008CE291E00E94240380E190E00E9424035A
:1024400084E690E00E9424038EE190E00E94240341
:1024500080E090E00E9424038A819B810E942403F3
:1024600082E191E00E94BE010AEC25E230E044E600
:1024700050E060E170E08CE291E00E94DA0C209183
:102480002301309124013B832A8383E10E941C03B2
:1024900086E990E00E94240388EC90E00E942403E7
:1024A0008CE890E00E94240380E090E10E942403E5
:1024B0008AE090E00E9424038AE090E00E942403D6
:1024C0008A819B810E9424038FEF9FEF0E94240347
:1024D00040912301509124015B834A8384E10E944F
:1024E0001C0380E991E00E9424038CE291E00E94A9
:1024F000240388E790E00E94240380E090E90E9492
:1025000024038FE090E00E9424038DE290E00E947B
:1025100024038A819B810E94240380E090E00E9432
:1025200024036BEC70E080E093E00E942203809132
:102530001D0190911E019B838A838DE00E941C03E4
:102540008AE892E00E94240384E190E00E94240340
:1025500084E690E00E94240382E390E00E9424033A
:102560008CE190E00E9424038A819B810E942403D5
:1025700089E191E00E94BE010E94680F0E94B201B1
:102580008BCD10927F0110927E0188EE93E0A0E047
:10259000B0E08093800190938101A0938201B09379
:1025A000830184E091E090937D0180937C0185EC30
:1025B00090E0909389018093880184EC90E090935F
:1025C0008B0180938A0180EC90E090938D01809341
:1025D0008C0181EC90E090938F0180938E0182ECCE
:1025E00090E0909391018093900186EC90E090931D
:1025F000930180939201109295011092960110928E
:1026000097011092980180E58093410281E08093C8
:10261000420280913D028C30A0F491E0980F90939B
:102620003D0280933E0290E0FC01EE0FFF1F8E0FF3
:102630009F1FFC01E75EFD4F88EB9BE09283818347
:1026400008958FEF80933E020895F999FECF92BDD1
:1026500081BDF89A992780B50895262FF999FECF64
:102660001FBA92BD81BD20BD0FB6F894FA9AF99AAF
:102670000FBE01960895052E97FB1EF400940E944C
:10268000521357FD07D00E94651307FC03D04EF488
:102690000C94521350954095309521953F4F4F4FD4
:1026A0005F4F089590958095709561957F4F8F4FFE
:1026B0009F4F08950E948713A59F900DB49F900D82
:1026C000A49F800D911D11240895A1E21A2EAA1B2A
:1026D000BB1BFD010DC0AA1FBB1FEE1FFF1FA217D2
:1026E000B307E407F50720F0A21BB30BE40BF50BCF
:1026F000661F771F881F991F1A9469F76095709558
:10270000809590959B01AC01BD01CF010895A29FDA
:10271000B001B39FC001A39F700D811D1124911DB5
:10272000B29F700D811D1124911D0895DB018F93BF
:102730009F930E945A13BF91AF91A29F800D911D4C
:10274000A39F900DB29F900D11240895991B79E0DD
:1027500004C0991F961708F0961B881F7A95C9F731
:1027600080950895EE0FFF1F0590F491E02D0994D8
:0E27700081E090E0F8940C94BD13F894FFCF34
:10277E00000000004301AC00DA0090010B01E900FB
:0C278E00FD004F4646FF4F4E004F4B0031
:00000001FF
