:100000000C946D000C9495000C9495000C94950044
:100010000C9495000C9495000C9495000C9495000C
:100020000C9495000C9495000C9495000C949500FC
:100030000C9495000C9495000C9495000C949500EC
:100040000C94A6020C9495000C94EE010C94C8013B
:100050000C9495000C9495000C9495000C949500CC
:100060000C9495000C94950000FFFFFF60000002C7
:10007000070000260CFFFFFFF0005A001F000006DB
:100080004552524F520000000000000800020100DB
:100090000003040700000000000000000000000052
:1000A000250028002B0000000000240027002A0063
:1000B000040404040404040402020202020203030E
:1000C0000303030301020408102040800102040816
:1000D0001020010204081020E00F11241FBECFEFF2
:1000E000D8E0DEBFCDBF11E0A0E0B1E0E0EBF3E28D
:1000F00002C005900D92AA37B107D9F722E0AAE70E
:10010000B1E001C01D92AF36B207E1F710E0CDE6D5
:10011000D0E004C02197FE010E94BC11CC36D1076B
:10012000C9F70E940D100C94D6110C940000CF92C8
:10013000DF92EF92FF920F931F93CF93DF936C01A7
:100140007A018B01C0E0D0E0CE15DF0589F0D8013F
:100150006D918D01D601ED91FC910190F081E02D22
:10016000C6010995892B11F47E0102C02196ECCFBE
:10017000C701DF91CF911F910F91FF90EF90DF901A
:10018000CF900895089580E090E00895FC01538D8C
:10019000448D252F30E0842F90E0821B930B541761
:1001A00010F0CF96089501970895FC01918D828DEE
:1001B000981761F0828DDF01A80FB11D5D968C91BB
:1001C000928D9F5F9F73928F90E008958FEF9FEFC6
:1001D0000895FC01918D828D981731F0828DE80F82
:1001E000F11D858D90E008958FEF9FEF0895FC013C
:1001F000918D228D892F90E0805C9F4F821B910909
:100200008F73992708958EE891E00E94F70021E00E
:10021000892B09F420E0822F0895FC01848DDF01F1
:10022000A80FB11DA35ABF4F2C91848D90E0019669
:100230008F739927848FA689B7892C93A089B18958
:100240008C9180648C93938D848D981306C0028862
:10025000F389E02D80818F7D80830895EF92FF9256
:100260000F931F93CF93DF93EC0181E0888F9B8DD9
:100270008C8D981305C0E889F989808185FD24C09B
:10028000F62E0B8D10E00F5F1F4F0F731127E02E1E
:100290008C8DE8120CC00FB607FCFACFE889F989FB
:1002A000808185FFF5CFCE010E940D01F1CF8B8DAE
:1002B000FE01E80FF11DE35AFF4FF0820B8FEA8930
:1002C000FB898081806207C0EE89FF896083E889AD
:1002D000F98980818064808381E090E0DF91CF9113
:1002E0001F910F91FF90EF900895CF93DF93EC0152
:1002F000888D8823C9F0EA89FB89808185FD05C046
:10030000A889B9898C9186FD0FC00FB607FCF5CF7F
:10031000808185FFF2CFA889B9898C9185FFEDCFC7
:10032000CE010E940D01E7CFDF91CF91089580E0CB
:1003300090E0892B29F00E94030181110C940000A8
:1003400008953FB7F8948091800190918101A09128
:100350008201B091830126B5A89B05C02F3F19F0FB
:100360000196A11DB11D3FBFBA2FA92F982F882735
:10037000820F911DA11DB11DBC01CD0142E0660F90
:10038000771F881F991F4A95D1F708950E94D111B0
:100390001F920F920FB60F9211242F933F934F93FA
:1003A0005F936F937F938F939F93AF93BF93EF93DD
:1003B000FF938EE891E00E940D01FF91EF91BF91B4
:1003C000AF919F918F917F916F915F914F913F91ED
:1003D0002F910F900FBE0F901F9018951F920F92A4
:1003E0000FB60F9211242F938F939F93EF93FF9348
:1003F000E0919E01F0919F018081E091A401F09134
:10040000A50182FD12C090818091A7018F5F8F733B
:100410002091A801821751F0E091A701F0E0E25786
:10042000FE4F958F8093A70101C08081FF91EF91CE
:100430009F918F912F910F900FBE0F901F90189545
:1004400090E0FC01E857FF4F3491FC01EC53FF4F63
:100450002491FC01E055FF4FE491EE2309F43BC0E9
:10046000332339F1333091F038F43130A9F03230A0
:1004700001F584B58F7D12C0373091F03830A1F08E
:100480003430B9F4809180008F7D03C0809180006A
:100490008F77809380000DC084B58F7784BD09C0AD
:1004A0008091B0008F7703C08091B0008F7D8093E2
:1004B000B000F0E0EE0FFF1FE456FF4FA591B4919E
:1004C0008FB7F894EC91611103C020952E2301C0E1
:1004D0002E2B2C938FBF08958F929F92AF92BF9235
:1004E000CF92DF92EF92FF926B017C010E94A101FB
:1004F0004B015C01C114D104E104F104F1F00E944C
:10050000A101DC01CB0188199909AA09BB09883E20
:100510009340A105B10570F321E0C21AD108E108AA
:10052000F10888EE880E83E0981EA11CB11CC1144E
:10053000D104E104F10419F7DDCFFF90EF90DF90D3
:10054000CF90BF90AF909F908F9008951F920F9281
:100550000FB60F9211242F933F938F939F93AF93D6
:10056000BF9380917C0190917D01A0917E01B0911B
:100570007F0130917B0123E0230F2D3720F401967A
:10058000A11DB11D05C026E8230F0296A11DB11DB6
:1005900020937B0180937C0190937D01A0937E0149
:1005A000B0937F018091800190918101A09182019F
:1005B000B09183010196A11DB11D8093800190939C
:1005C0008101A0938201B0938301BF91AF919F916C
:1005D0008F913F912F910F900FBE0F901F90189504
:1005E000682F7FEF8FEF9FEF0C94910F0C94910F7A
:1005F000CF93DF931F92CDB7DEB799830E942E0F62
:100600009981892F0F90DF91CF910C942E0FCF936A
:10061000C1E0C80F837029F080E00E942E0F8C2F5C
:10062000F7CFCF91089561E08AE00C9420029CB549
:10063000282F23709C7F922B9CBD2DB582FB992780
:1006400090F9822F8E7F892B8DBD08958EBD00007D
:100650000DB407FEFDCF8EB508958FEF0E942603DF
:1006600087FDFBCF089561E00E9420028FEF0C947C
:100670002603CF93C82F60E08AE00E9420028C2FCF
:100680000E94260380E00E94260380E00E94260349
:1006900061E08AE0CF910C9420020F931F93CF93D7
:1006A000DF931F92CDB7DEB7162F082F60E08AE0E8
:1006B00079830E942002802F80680E94260379811E
:1006C000872F0E942603812F0F90DF91CF911F91DA
:1006D0000F910C942603CF93DF93EC010E94130338
:1006E00080912D02811105C080E090E8A0E1B0E08A
:1006F00004C080E090E8A0E3B0E0288139813F7039
:10070000BC01CD01620F731F811D911DDF91CF913F
:100710000C944D03CF93DF9300D0CDB7DEB7498360
:100720005A830E944D034981842F0E9426035A81D7
:10073000852F0E9426030F900F90DF91CF910C948C
:100740001303462F50E0440F551F482B80912D0274
:10075000811105C060E974E280E190E004C064E9C1
:1007600070E280E390E00C948A031F93CF93DF93B1
:10077000FC01262F32813617C1F043E050E0461BC2
:1007800051093181432B30912D02311105C06CE8A4
:1007900074E280E190E004C060E970E280E390E000
:1007A000122FEF010E948A031A83DF91CF911F91CC
:1007B0000895CF93DF93EC0160E00E94B50361E000
:1007C00088810E94A10361E0CE010E94B50361E02F
:1007D0008881DF91CF910C94A103CF93DF93EC013B
:1007E00061E00E94B50361E088810E94A10360E09E
:1007F000CE010E94B50360E08881DF91CF910C9417
:10080000A1030F931F93CF93DF931F92CDB7DEB752
:10081000162F082F60E08AE079830E942002802F43
:100820000E9426037981872F0E942603812F0F9033
:10083000DF91CF911F910F910C942603CF92DF92FD
:10084000EF92FF920F931F93CF93DF9300D000D0CE
:10085000CDB7DEB77C01890149835A836B837C83E2
:100860000E94130349815A816B817C81CB01BA01BB
:100870000E94010480E00E94260367010E0D1F1DE7
:10088000C016D10639F080E00E942603F60181935C
:100890006F01F6CF8BE692E00F900F900F900F90C4
:1008A000DF91CF911F910F91FF90EF90DF90CF904C
:1008B0000C946B03CF93DF930E94010480E00E94AD
:1008C000260380E00E942603C82FD0E080E00E942B
:1008D0002603D82B0E941303CE01DF91CF910895F8
:1008E0000F931F93CF93DF9380912D02811105C049
:1008F00064EE74E280E190E004C068EF70E280E3AF
:1009000090E00E945A048F3F2FE0920709F580E0A3
:100910000E946105C8E6D0E0FE0184910E942E0F7E
:100920002196F0E0C838DF07B9F780E00E9407039E
:1009300002E111E020E036E04DE160EB70E080EF95
:1009400090E00E94520F0E94CE0F0E94BA0EFFCF7D
:10095000DF91CF911F910F9108950F931F93CF9324
:10096000DF93EC0161E00E94B50361E088810E94A1
:10097000A10380912D02811105C060E974E280E13C
:1009800090E004C064E970E280E390E00E945A04C1
:100990008C0160E088810E94A103C80181709927C1
:1009A000DF91CF911F910F910895EF92FF920F93D6
:1009B0001F93CF93DF931F92CDB7DEB78C0188E0F2
:1009C000F82EE12CC80169830E94AD04EE0CE82AE0
:1009D000FA946981F110F6CFC8010E94B50361E075
:1009E000F80180810E94A10360E0F80180810E94EB
:1009F000A1038E2D90E00F90DF91CF911F910F9169
:100A0000FF90EF9008950F931F93CF93DF93EC0126
:100A1000062F18E0602F70E0660F672F661F770BB8
:100A2000CE010E94B50361E088810E94A10360E0CD
:100A300088810E94A103000F115061F7CE01DF9160
:100A4000CF911F910F910C94AD04CF93CFB7F89431
:100A500080917A01811124C0EAEBF0E08491EEEC00
:100A6000F0E09491E82FF0E0EE0FFF1FEA55FF4F02
:100A7000A591B491EC91E92321F461E08AE00E9410
:100A800020028AE00E949B0E8CB580618CBD8CB5E3
:100A900080648CBD8DE00E949B0E8BE00E949B0EBB
:100AA00080917A018F5F80937A01CFBFCF910895B3
:100AB0008AE00E949B0E61E08AE00E9420020C9472
:100AC00025054F925F926F927F92BF92CF92DF92F5
:100AD000EF92FF920F931F93CF93DF93CDB7DEB7C3
:100AE000C758D1090FB6F894DEBF0FBECDBFB82EE0
:100AF0000E9458050E94250584E00E94170381E0AA
:100B00008DBD80E00E94390388E60E943903B2FE61
:100B100033C20E94580585E0809344020E949B0ED8
:100B200082E00E941703809144020E9433036AE02E
:100B300070E080E090E00E946C021BE0115021F018
:100B40008FEF0E942603FACF10922C0210922B02F4
:100B500025E940E050E0BA0180E00E94F20D8FEFFD
:100B60000E942603182F87FF0DC080912B029091C1
:100B70002C02019690932C0280932B02883E934086
:100B800071F7FAC1809144020E9433038FEF0E94F3
:100B900026031130E9F627E84AEA51E060E070E008
:100BA00088E00E94F20D0E942D03082F8FEF0E9413
:100BB00026038FEF0E9426038FEF0E9426038FEFFC
:100BC0000E942603809144020E943303013009F001
:100BD00010E0111104C0C12CD12C760105C0C12C2C
:100BE000D12CE12C40E4F42E25E940E050E0BA019C
:100BF00087E30E94F20D0E94E40D25E9B701A601EA
:100C000089E20E94F20D0E94E40D80FF07C061E0BE
:100C100070E080E090E00E946C02DBCF112359F17C
:100C200025E940E050E0BA018AE30E94F20D0E94FB
:100C30002D0314E0C12CD12C7601FE2CED2CDC2CE4
:100C4000CC248FEF0E942603C82A1150B1F78FEFF2
:100C50000E942603809144020E943303D701C601FB
:100C60002EE1B695A795979587952A95D1F781702E
:100C70008093450202C01092450284E00E9417034F
:100C800011E01DBD21E030E042EC51E060E070E099
:100C9000CE0101960E942A0E89818B50823018F075
:100CA0001092460202C01093460224E030E046EC67
:100CB00051E060E070E0CE0101960E942A0E498169
:100CC0005A816B817C8199E0440F551F661F771F05
:100CD0009A95D1F74093550250935602609357026C
:100CE00070935802435F5F4F6F4F7F4F21E030E0BA
:100CF000CE0101960E942A0E898190E090934802CD
:100D000080934702409155025091560260915702DC
:100D100070915802425F5F4F6F4F7F4F22E030E08B
:100D2000CE0101960E942A0E89819A8190934A02EF
:100D30008093490280914702880F10924F0280935E
:100D400050028091460240915502509156026091A6
:100D500057027091580281117EC04F5E5F4F6F4FF6
:100D60007F4F22E030E0CE0101960E942A0E898159
:100D70009A8190934C0280934B024091550250917E
:100D8000560260915702709158024A5E5F4F6F4F52
:100D90007F4F22E030E0CE0101960E942A0E898129
:100DA0009A8190934E0280934D0240914902509156
:100DB0004A0260E070E019E0440F551F661F771F7C
:100DC0001A95D1F7C0905502D0905602E090570284
:100DD000F0905802C40ED51EE61EF71EC0925902AE
:100DE000D0925A02E0925B02F0925C02A0E0B0E086
:100DF0000AE0880F991FAA1FBB1F0A95D1F7C80EDA
:100E0000D91EEA1EFB1EC0925D02D0925E02E092E5
:100E10005F02F092600240904B0250904C02612CB5
:100E2000712C85E0440C551C661C771C8A95D1F703
:100E3000A0914F02B09150022EEF3FEF4FEF5FEFC6
:100E40000E949D11460E571E681E791EC40CD51CAB
:100E5000E61CF71C89C04C5D5F4F6F4F7F4F24E04D
:100E600030E0CE0101960E942A0EC980DA80EB8024
:100E7000FC8040915502509156026091570270914A
:100E80005802445D5F4F6F4F7F4F24E030E0CE014A
:100E900001960E942A0E09811A812B813C810093C0
:100EA00051021093520220935302309354026091E6
:100EB000490270914A028091550290915602A09188
:100EC0005702B091580249E0B695A7959795879536
:100ED0004A95D1F7860F971FA11DB11DCC0CDD1CC3
:100EE000EE1CFF1CC80ED91EEA1EFB1E69E0880F0F
:100EF000991FAA1FBB1F6A95D1F78093590290933F
:100F00005A02A0935B02B0935C02E0914702F09119
:100F10004802A90198012250310941095109DF0114
:100F20000E949D11DC01CB018C0D9D1DAE1DBF1DCE
:100F300079E0880F991FAA1FBB1F7A95D1F780937C
:100F40005D0290935E02A0935F02B0936002EE0F89
:100F5000FF1FCE1ADF0AE108F108B9E0CC0CDD1C56
:100F6000EE1CFF1CBA95D1F7C0926102D0926202CA
:100F7000E0926302F092640260E070E08CE090E046
:100F80000E945A048830C1F760E070E08CE090E085
:100F90000E945A0492959F7090932D0210926C02B9
:100FA00010926B028CEF9FE090936E0280936D0223
:100FB0008BE692E00E946B0380912D02811105C0A7
:100FC00064EC74E280E190E004C064ED70E280E3E0
:100FD00090E040E00E94C10D80912D02811105C07A
:100FE0006CE874E280E190E004C060E970E280E3C4
:100FF00090E043E80E94C10D80912D02811105C04F
:1010000060E974E280E190E004C064E970E280E3AA
:1010100090E0C957DF4F6883C758D040CC57DF4FA7
:101020007883C458D040CB57DF4F8883C558D04011
:10103000CA57DF4F9883C658D0400E941303C95740
:10104000DF4F6881C758D040CC57DF4F7881C458F4
:10105000D040CB57DF4F8881C558D040CA57DF4FAB
:101060009881C658D0400E94010480E00E94260367
:1010700080E00E942603182F8BE692E00E946B030B
:10108000412F406880912D02811105C060E974E212
:1010900080E190E004C064E970E280E390E00E94A7
:1010A000C10D8E010F5F1F4F80E8F80111928A95E4
:1010B000E9F70E94130380912D02811105C060E9B8
:1010C00074E280E190E004C064E970E280E390E0C3
:1010D0000E945A048C7FCF57DF4F8883C158D0407D
:1010E00080912D02811105C06CE874E280E190E0EE
:1010F00004C060E970E280E390E00E945A048C7FB3
:10110000CE57DF4F8883C258D04082E0CD57DF4FA3
:101110008883C358D040CE018F579F4F0E94ED0364
:1011200061E070E0CE018F579F4F0E94D504CE0141
:101130008F579F4F0E94ED03CE018F579F4F0E9404
:10114000D903CE018F579F4F0E94ED0360EACE0175
:101150008F579F4F0E940305892BB9F560E0CE01A0
:101160008F579F4F0E940305892B79F5CE018F572A
:101170009F4F0E94ED0361EACE018F579F4F0E945F
:101180000305892B11F5E12CF12C61E070E0FFE7FC
:10119000EF16F10411F060E070E0CE018F579F4F21
:1011A0000E94D504F80181938F01FFEFEF1AFF0A27
:1011B00020E8E216F10449F7CE018F579F4F0E94B5
:1011C000D9038BE692E00E946B038A818F3F09F07E
:1011D00083C08B81813009F07FC08B2D8C7FB82E2E
:1011E0008C8181FF09C00E94130384E40E943903AB
:1011F0008BE692E00E946B0380916D0290916E02EB
:101200008C37910520F48CE790E00E94E60E8091E7
:101210006B0290916C0284589F4F90936C02809364
:101220006B0280916D0290916E028C5791099093A0
:101230006E0280936D028E01045F1F4F7E01E4E811
:10124000EE0EF11CF801379780810E942603F80109
:10125000369780810E942603F801359780810E948D
:101260002603F801349780810E942603F801339702
:1012700080810E942603F801329780810E94260314
:10128000F801319780810E942603F80180810E9435
:101290002603085F1F4F0E151F05A1F6EE968FADB2
:1012A000EE970E942603EF968FADEF970E942603DC
:1012B000C158DF4F8881CF57D0400E942603C058C5
:1012C000DF4F8881C058D0400E94260380E00E94F2
:1012D00007030E94BA0E29C145E050E068E271E0C0
:1012E0008EE891E00E94970042E050E06EE271E0EB
:1012F0008EE891E00E94970080912D02811105C037
:1013000064E574E280E190E004C068E570E280E3A7
:1013100090E021E030E040E050E00E94510D8091EB
:101320002D02811105C068E274E280E190E004C002
:101330006CE270E280E390E020E234E040E050E0D4
:101340000E94510D80912D02811105C06CE274E262
:1013500080E190E004C060E370E280E390E02FE27F
:1013600030E040E050E00E94510D80912D0281114B
:1013700005C060E374E280E190E004C064E370E2E1
:1013800080E390E020E233E040E050E00E94510D25
:1013900080912D02811105C064E374E280E190E048
:1013A00004C068E370E280E390E020E030E0A9014F
:1013B0000E94510D80912D02811105C068E374E2F5
:1013C00080E190E004C06CE370E280E390E02AE00A
:1013D00030E040E050E00E94510D80912D028111DB
:1013E00005C06CE374E280E190E004C060E470E268
:1013F00080E390E02DE032E040E050E00E94510DAB
:1014000080912D02811105C060E474E280E190E0DA
:1014100004C064E470E280E390E027E130E040E063
:1014200050E00E94510D80912D02811105C064E4AD
:1014300074E280E190E004C068E470E280E390E050
:1014400020EE31E040E050E00E94510D80912D02ED
:10145000811105C068E474E280E190E004C06CE4AE
:1014600070E280E390E020E030E0A9010E94510D9D
:1014700080912D02811105C06CE474E280E190E05E
:1014800004C060E570E280E390E02AE030E040E0F4
:1014900050E00E94510D80912D02811105C06CE633
:1014A00074E280E190E004C060E770E280E390E0E5
:1014B00022E030E040E050E00E94510D80912D028A
:1014C000811105C068E674E280E190E004C06CE63A
:1014D00070E280E390E021E030E040E050E00E94E4
:1014E000510D80912D02811105C06CE574E280E1FF
:1014F00090E004C060E670E280E390E020E030E03D
:10150000A9010E94510D80912D02811105C064E650
:1015100074E280E190E004C068E670E280E390E06D
:1015200020E030E0A9010E94510D80912D0281112F
:1015300005C060E374E280E190E004C064E370E21F
:1015400080E390E00E94870D70932F0260932E023B
:1015500080912D02811105C064E474E280E190E085
:1015600004C068E470E280E390E00E94870D70930D
:1015700031026093300267E070E080E096E20E9402
:10158000F6020E94CE0F67E070E080E096E20E94D3
:10159000F6020E94CE0F67E070E080E096E20E94C3
:1015A000F6020E94CE0F80912D02811108C0A4EC9A
:1015B000CA2EA4E2DA2EA0E1EA2EF12C07C0F4ED47
:1015C000CF2EF0E2DF2EF0E3EF2EF12C8AE10E9425
:1015D000F002C701B6010E94F60264E070E080E00C
:1015E00090E00E94F60260E870E080E090E00E94E7
:1015F000F60280E090E00E94E60EB0FE8CC180E032
:1016000090E00E9473118C3709F45DC180E00E9464
:10161000F00267E070E080E096E20E94F6028091BE
:10162000300290913102BC0197FF02C06F5F7F4F83
:101630009B013595279564E170E00E948911660F42
:10164000771F620F731F80912E0290912F0297FDDA
:10165000019601E311E020E032E04BE1959587959A
:101660000E94520F609130027091310277FF02C0E8
:101670006F5F7F4F7595679580912E0290912F0235
:1016800097FD019605E411E020E032E04BE19595ED
:1016900087950E94520F00912E0210912F02809187
:1016A0003002909131029C0197FF02C02F5F3F4FA3
:1016B0003595279564E170E00E9489117901E60E65
:1016C000F71E980117FF02C02F5F3F4F35952795F2
:1016D000C8016CEE7FEF0E9489116901C60ED71E0A
:1016E0008EE20E94F002C6010E94F802C7010E9429
:1016F000F8028BE190E00E94F80280E090E00E9406
:10170000F802B801110F880B990B0E94F6020091A4
:10171000300210913102980117FF02C02F5F3F4F36
:1017200035952795C80164E170E00E94891179011F
:10173000E60EF71E80912E0290912F029C0197FFDA
:1017400002C02F5F3F4F3595279560E570E00E94FE
:1017500089116901C60ED71E8EE20E94F002C601F1
:101760000E94F802C7010E94F8028BE190E00E94FB
:10177000F80280E090E00E94F802B801110F880B97
:10178000990B0E94F6028091300290913102BC01C7
:1017900097FF02C06F5F7F4F9B013595279564E1EE
:1017A00070E00E948911620F731F80912E02909148
:1017B0002F0297FD019608E711E020E032E04BE1AF
:1017C000959587950E94520F85E10E94F0028FEF58
:1017D0000E94F0020E94BA0E86E20E94F00280E0AF
:1017E0000E94F00280E090E00E94E60EC12CD12C15
:1017F000760180912D02811105C08CE195E2A0E176
:10180000B0E004C080E591E2A0E3B0E0BC01CD010E
:101810006C0D7D1D8E1D9F1DC957DF4F6883C758F6
:10182000D040CC57DF4F7883C458D040CB57DF4FE0
:101830008883C558D040CA57DF4F9883C658D040D8
:101840000E941303C957DF4F6881C758D040CC5757
:10185000DF4F7881C458D040CB57DF4F8881C558BF
:10186000D040CA57DF4F9881C658D0400E9401042B
:1018700080E00E94260380E00E942603682F8BE60A
:1018800092E0C957DF4F6883C758D0400E946B036E
:10189000C6010196C957DF4F6881C758D0400E94E2
:1018A0007B11FFEFCF1ADF0AEF0AFF0A28E1C21609
:1018B000D104E104F10409F09CCF6CE780E090E0F2
:1018C0000E947B1128C0C12CD12C7601C601019643
:1018D0000E947311482F80912D02811105C08CE167
:1018E00095E2A0E1B0E004C080E591E2A0E3B0E0C1
:1018F000BC01CD016C0D7D1D8E1D9F1D0E94C10D73
:101900008FEFC81AD80AE80AF80AE8E1CE16D1041F
:10191000E104F104D9F680912D02811105C064E043
:1019200075E280E190E004C068E171E280E390E05C
:10193000C957DF4F6883C758D040CC57DF4F7883F3
:10194000C458D040CB57DF4F8883C558D040CA57C2
:10195000DF4F9883C658D0400E941303C957DF4F0A
:101960006881C758D040CC57DF4F7881C458D040E9
:10197000CB57DF4F8881C558D040CA57DF4F988179
:10198000C658D0400E944D0380EB0E94260384E09D
:101990000E9426038BE692E00E946B0387E797E79D
:1019A000DC018093650290936602A0936702B09376
:1019B0006802B1FE61C0B12C0FE114EF80912D02DD
:1019C000811105C068E074E280E190E004C068E045
:1019D00070E280E390E00E94870D2B013C01C8017A
:1019E0000197F1F780912D02811105C068E074E242
:1019F00080E190E004C068E070E280E390E00E9443
:101A0000870D6B017C01C418D508E608F70886E04D
:101A1000CC0CDD1CEE1CFF1C8A95D1F720E8C21609
:101A200027E3D20621E8E20623E0F206A0F4809143
:101A30002D02811105C06CE675E280E190E004C0E2
:101A400060E871E280E390E04B2D0E94C10DB394F9
:101A5000FFE1BF12B3CF80912D02811105C06CE070
:101A600074E280E190E004C06CE070E280E390E01A
:101A7000A70196010E94510DC957DF4F0FB6F89488
:101A8000DEBF0FBECDBFDF91CF911F910F91FF90B1
:101A9000EF90DF90CF90BF907F906F905F904F90CE
:101AA0000895CF93DF93CDB7DEB728970FB6F8949C
:101AB000DEBF0FBECDBF2D833E834F835887698322
:101AC0007A838B839C830E94130369817A818B8143
:101AD0009C810E944D032D81822F0E9426033E810E
:101AE000832F0E9426034F81842F0E94260358854E
:101AF000852F0E9426038BE692E028960FB6F89475
:101B0000DEBF0FBECDBFDF91CF910C946B030F935F
:101B10001F93CF93DF9300D000D0CDB7DEB76C8397
:101B20007B8389839A830E9413036C817B818981E3
:101B30009A810E94010480E00E94260380E00E94B6
:101B40002603682F80E06C830E942603782F80E0B4
:101B50007B830E942603182F80E00E942603082F13
:101B60008BE692E00E946B036C817B81812F902F2A
:101B70000F900F900F900F90DF91CF911F910F91C9
:101B80000895CF93DF9300D000D01F92CDB7DEB77A
:101B90004D8369837A838B839C830E9413036981BD
:101BA0007A818B819C810E944D034D81842F0E94FC
:101BB00026038BE692E00F900F900F900F900F90FE
:101BC000DF91CF910C946B03CF930E942D03C82F0C
:101BD000809144020E9433038FEF0E9426038C2FD2
:101BE000CF910895FF920F931F93CF93DF9300D06F
:101BF0001F92CDB7DEB7182F062FF72E60E0809129
:101C000044022B834A8359830E94200261E070E0E2
:101C100080E090E00E946C02812F80640E94260385
:101C20008F2D0E942603802F0E9426035981852F25
:101C30000E9426034A81842F0E9426032B81822F33
:101C40000F900F900F90DF91CF911F910F91FF9008
:101C50000C9426038F929F92AF92BF92CF92DF9205
:101C6000EF92FF920F931F93CF93DF936C014A0182
:101C70005B0179018091450225E9882341F089E0E3
:101C800076956795579547958A95D1F702C0442771
:101C90005E7F81E10E94F20D0E94E40D60E0809180
:101CA00044020E94200261E070E080E090E00E9427
:101CB0006C028FEF0E9426038E3FD9F7E401D170AA
:101CC00000E010E00C171D0731F08FEF0E94260393
:101CD0000F5F1F4FF7CF8601CE0CDF1C0C151D05C3
:101CE00039F08FEF0E942603F80181938F01F6CF20
:101CF00000E010E082E092E08E199F099C012C1B0D
:101D00003D0BE9010C171D0730F48FEF0E942603ED
:101D10000F5F1F4FF7CF80914402DF91CF911F914A
:101D20000F91FF90EF90DF90CF90BF90AF909F907A
:101D30008F900C94330390E0FC01EC53FF4F2491FF
:101D4000FC01E055FF4F8491882399F090E0880FC3
:101D5000991FFC01EA55FF4FA591B491FC01E4568F
:101D6000FF4F859194918FB7F894EC91E22BEC930F
:101D70008FBF089580916B0290916C028C7F9F7051
:101D800090936C0280936B020E94130340916B024C
:101D900050916C0280912D02811105C068EE74E2B1
:101DA00080E190E004C06CEF70E280E390E00E947C
:101DB0008A030E94700420916B0230916C0282179A
:101DC0009307B9F78BE692E00C946B03EF92FF92C6
:101DD0000F931F93CF93DF938C0180916B029091AF
:101DE0006C029F7090936C0280936B020E941303AD
:101DF00040916B0250916C024C7F5F7080912D027C
:101E0000811105C068EE74E280E190E004C06CEFDF
:101E100070E280E390E00E948A038CEFE82E8FE06E
:101E2000F82EC0916B02D0916C020E947004C81B06
:101E3000D90BDF70C7018C1B9D0B90936E028093B2
:101E40006D028017910768F38BE692E0DF91CF91E6
:101E50001F910F91FF90EF900C946B03CF93C82FBD
:101E600080916D0290916E02892B21F481E090E0C7
:101E70000E94E60E20916B0230916C022F5F3F4F63
:101E800030936C0220936B0220916D0230916E02B0
:101E90002150310930936E0220936D028C2FCF9127
:101EA0000C942603AF92BF92CF92DF92EF92FF92F3
:101EB0000F931F93CF93DF931F92CDB7DEB76C01C3
:101EC0007B0159018CE049830E94F002C6010E9407
:101ED000F802C7010E94F8024981842F90E00E9415
:101EE000F802C5010E94F80268017601E01AF10AC1
:101EF000F60181916F01882319F00E942E0FF5CF12
:101F00000E942E0F81E08E0D0F90DF91CF911F91D7
:101F10000F91FF90EF90DF90CF90BF90AF900C9417
:101F20000703FF920F931F93CF93DF931F92CDB7B9
:101F3000DEB7172F082FF92E80916D0290916E0257
:101F4000049730F484E090E069830E94E60E698192
:101F500020916B0230916C022C5F3F4F30936C02EA
:101F600020936B0220916D0230916E022450310952
:101F700030936E0220936D02862F0E942603812FDC
:101F80000E942603802F0E9426038F2D0F90DF9141
:101F9000CF911F910F91FF900C94260360E070E0A9
:101FA000CB010E94F60281E00E94F00286E20E94CC
:101FB000F00280E00E94F00280E090E00C94E60ED7
:101FC000EEE8F1E01382128288EE93E0A0E0B0E048
:101FD00084839583A683B78384E091E09183808393
:101FE00085EC90E09587848784EC90E097878687DE
:101FF00080EC90E0918B808B81EC90E0938B828BD6
:1020000082EC90E0958B848B86EC90E0978B868BAE
:10201000118E128E138E148E0895789484B582607A
:1020200084BD84B5816084BD85B5826085BD85B57C
:10203000816085BD80916E00816080936E001092FA
:102040008100809181008260809381008091810075
:102050008160809381008091800081608093800006
:102060008091B10084608093B1008091B000816064
:102070008093B00080917A00846080937A00809190
:102080007A00826080937A0080917A0081608093E8
:102090007A0080917A00806880937A001092C10063
:1020A000E0919E01F0919F0182E08083E0919A018E
:1020B000F0919B011082E0919C01F0919D018FECC9
:1020C00080831092A601E091A201F091A30186E025
:1020D0008083E091A001F091A101808180618083E3
:1020E000E091A001F091A101808188608083E0915E
:1020F000A001F091A101808180688083E091A0011E
:10210000F091A10180818F7D808388E00E949B0EE9
:1021100061E088E00E94200264E170E080E090E0ED
:102120000E946C0260E088E00E94200264E170E09E
:1021300080E090E00E946C0261E088E00E94200252
:1021400064E170E080E090E00E946C0287E00E9411
:1021500061050E94BA0E80912D02811105C040E0F8
:1021600050E960E170E004C040E050E960E370E0F5
:1021700024E030E082E392E00E941E0480912D0270
:10218000811105C04CE055E260E170E004C040E21E
:1021900051E260E370E02DE030E086E392E00E94DF
:1021A0001E0480912D02811105C048E754E260E1D0
:1021B00070E004C04CE750E260E370E021E030E002
:1021C00083E492E00E941E046FEF70E880E892E0E2
:1021D0000E94F60267E070E080E096E20E94F6025C
:1021E000809142024AE064E871E090E00E943E1172
:1021F00004E811E020E032E04FE166E970E080E9B8
:1022000091E00E94520F60E070E08FEF94E00E9436
:10221000F60269EE70E080E093E00E94F60262E070
:1022200070E080E09FE10E94F60260E476E080E0EA
:102230009DE00E94F60260EC72E180E89CE40E945E
:10224000F6026FEF70E080E093E00E94F6026FEF1D
:1022500070E880E894E00E94F60260E075E080E0BB
:102260009DE00E94F60260EC72E180E89CE40E942E
:10227000F6020E94CE0F0E9497016BCFBB274A3017
:1022800031F4992322F4BDE2909581959F4F0C94EF
:102290004A11BB27FB015527AA27880F991FAA1FA0
:1022A000A41710F0A41B83955051B9F7A05DAA3371
:1022B00008F0A95DA193009779F7B111B19311923C
:1022C000CB010C946311DC01FC01672F7191772322
:1022D000E1F7329704C07C916D9370836291AE17E1
:1022E000BF07C8F30895F999FECF92BD81BDF89A52
:1022F000992780B50895262FF999FECF1FBA92BD70
:1023000081BD20BD0FB6F894FA9AF99A0FBE0196D6
:10231000089597FB072E16F4009407D077FD09D097
:102320000E94A81107FC05D03EF4909581959F4F1F
:102330000895709561957F4F08950E94C211A59FE1
:10234000900DB49F900DA49F800D911D11240895B0
:10235000AA1BBB1B51E107C0AA1FBB1FA617B707CB
:1023600010F0A61BB70B881F991F5A95A9F78095E7
:102370009095BC01CD010895EE0FFF1F0590F491DB
:10238000E02D0994A29FB001B39FC001A39F700DDF
:10239000811D1124911DB29F700D811D1124911D6D
:1023A000089581E090E0F8940C94D611F894FFCF52
:1023B000000000002E019700C6007501F700D5004F
:1023C000E900434F50524F434553534F5220455815
:1023D00043455054494F4E004654383130000D0AA1
:1023E00000465438313020656E205465656E73792F
:1023F00020332E320050726573696F6E6120656CF8
:102400002070756E746F20706172612063616C69F9
:1024100062726172206C612070616E74616C6C61BB
:0A2420002074616374696C00780099
:00000001FF
