:100000000C945D000C9485000C9485000C94850084
:100010000C9485000C9485000C9485000C9485004C
:100020000C9485000C9485000C9485000C9485003C
:100030000C9485000C9485000C9485000C9485002C
:100040000C947D0D0C9485000C9401040C94DB033E
:100050000C9485000C9485000C9485000C9485000C
:100060000C94C70D0C9485000000000800020100EC
:100070000003040700000000000000000000000072
:10008000250028002B0000000000240027002A0083
:10009000040404040404040402020202020203032E
:1000A0000303030301020408102040800102040836
:1000B00010200102040810200F1611241FBECFEFDC
:1000C000D8E0DEBFCDBF11E0A0E0B1E0E2E9FDE2A3
:1000D00002C005900D92A833B107D9F722E0A8E33A
:1000E000B1E001C01D92A63BB207E1F710E0CDE5FB
:1000F000D0E004C02197FE010E949116CC35D107B3
:10010000C9F70E943D130C94C7160C940000CF92BF
:10011000DF92EF92FF920F931F93CF93DF936C01C7
:100120007A018B01C0E0D0E0CE15DF0589F0D8015F
:100130006D918D01D601ED91FC910190F081E02D42
:10014000C6010995892B11F47E0102C02196ECCFDE
:10015000C701DF91CF911F910F91FF90EF90DF903A
:10016000CF900895FC01538D448D252F30E0842FCE
:1001700090E0821B930B541710F0CF9608950197CF
:100180000895FC01918D828D981761F0828DDF01B9
:10019000A80FB11D5D968C91928D9F5F9F73928F7A
:1001A00090E008958FEF9FEF0895FC01918D828D6F
:1001B000981731F0828DE80FF11D858D90E008953C
:1001C0008FEF9FEF0895FC01918D228D892F90E094
:1001D000805C9F4F821B91098F73992708958BE054
:1001E00092E00E94E30021E0892B09F420E0822FB5
:1001F0000895FC01848DDF01A80FB11DA35ABF4FE4
:100200002C91848D90E001968F739927848FA68915
:10021000B7892C93A089B1898C9180648C93938D3C
:10022000848D981306C00288F389E02D80818F7D2C
:1002300080830895EF92FF920F931F93CF93DF93E4
:10024000EC0181E0888F9B8D8C8D981305C0E88927
:10025000F989808185FD24C0F62E0B8D10E00F5F9B
:100260001F4F0F731127E02E8C8DE8120CC00FB6B4
:1002700007FCFACFE889F989808185FFF5CFCE01A7
:100280000E94F900F1CF8B8DFE01E80FF11DE35ABA
:10029000FF4FF0820B8FEA89FB898081806207C063
:1002A000EE89FF896083E889F98980818064808391
:1002B00081E090E0DF91CF911F910F91FF90EF903F
:1002C0000895CF93DF93EC01888D8823C9F0EA89E4
:1002D000FB89808185FD05C0A889B9898C9186FD3F
:1002E0000FC00FB607FCF5CF808185FFF2CFA8893C
:1002F000B9898C9185FFEDCFCE010E94F900E7CF3F
:10030000DF91CF91089580E090E0892B29F00E9441
:10031000EF0081110C94000008954F925F926F924C
:100320007F928F929F92AF92BF92CF92DF92EF9285
:10033000FF920F931F93CF93DF93CDB7DEB7C551D5
:10034000D2400FB6F894DEBF0FBECDBFC05FDD4F09
:100350008883C051D240CF5EDD4F9883C151D240D7
:100360000E940B0FC05FDD4F8881C051D240A82E84
:10037000CF5EDD4F9881C151D240B92E10E000E22E
:10038000D5018D915D018823F1F08E3289F0992499
:100390009394910E082E000C990B0E94AB16E1E08D
:1003A000F2E0EC0FFD1FE10FF11D8083192DE8CF66
:1003B000183030F7E1E0F2E0EC0FFD1FE10FF11D26
:1003C00000831F5FF5CF80E21B3048F4E1E0F2E0EC
:1003D000EC0FFD1FE10FF11D80831F5FF5CF412C56
:1003E000512C3201FE0131965F0180917D01909187
:1003F0007E01A0917F01B0918001A3019201280F9D
:10040000391F4A1F5B1F00E210E0B50184E691E04E
:100410000E94A0114BE050E0BE016F5F7D4FC5010F
:100420000E94B316892B11F52D8D3E8D4F8D58A14D
:10043000C45FDD4F288339834A835B83CC50D2402D
:10044000CB8CDC8CE12CF12C80916601813059F44D
:100450008D899E89A0E0B0E0DC0199278827C82A11
:10046000D92AEA2AFB2A81E090E00AC030E2430E52
:10047000511C611C711C89818111B7CF80E090E013
:10048000892B09F4ECC0412C512C320100E010E022
:10049000C45FDD4F88819981AA81BB81CC50D24055
:1004A000481659066A067B0608F0D3C0C45FDD4FC4
:1004B00088819981AA81BB81CC50D2408419950949
:1004C000A609B709813042E09407A105B10520F0E3
:1004D00080E092E0A0E0B0E003964C015CEF852262
:1004E000812F90E020916701309168018217930776
:1004F00009F049C0002339F001508FEFC81AD80A1B
:10050000E80AF80A3FC072E0CC0CDD1CEE1CFF1CB0
:100510007A95D1F78091790190917A01A0917B0130
:10052000B0917C01C80ED91EEA1EFB1EB701A601C0
:1005300044275E7F84E691E00E947211C5010E940B
:10054000310FF601F170D501AE0FBF1FCD90DD90D8
:10055000ED90FC901397FD01B701A6018191919157
:10056000A191B19184179507A607B70759F40F5FBA
:100570004F5F5F4F6F4F7F4FCF018A199B098115E6
:10058000924064F310E0A0916F01B0917001A70157
:1005900096010E948616209181013091820140913E
:1005A000830150918401260F371F481F591FCE5ECB
:1005B000DD4F288339834A835B83C251D240812F28
:1005C00090E0A0E0B0E069E0880F991FAA1FBB1F70
:1005D0006A95D1F7BA01A901480F591F6A1F7B1FFD
:1005E00044275E7F84E691E00E9472111F5FC5017F
:1005F0000E94310F87E092E00E94BA0FB401C5015A
:100600000E94D31280E00E94600F809107029091B7
:1006100008028C7F9F7090930802809307020E94CB
:100620000B0F4091070250910802809189018111BE
:1006300005C068EE74E280E190E004C06CEF70E207
:1006400080E390E00E94D90F32E0530E611C711CD0
:100650001FCF87E092E00E94BA0F81E005C087E0DB
:1006600092E00E94BA0F80E0CB5EDD4F0FB6F894A7
:10067000DEBF0FBECDBFDF91CF911F910F91FF90D5
:10068000EF90DF90CF90BF90AF909F908F907F9032
:100690006F905F904F9008958F929F92AF92BF920C
:1006A0000F931F93CF93DF93CDB7DEB7A1970FB60C
:1006B000F894DEBF0FBECDBF19A2423008F44AE065
:1006C0008E010F5D1F4F842E912CA12CB12CA50102
:1006D00094010E946416E62FB901CA010150110964
:1006E000EA3014F4E05D01C0E95CD801EC93232BFF
:1006F000242B252B61F70115110571F0F8010190EC
:100700000020E9F73197AF01401B510BB8018BE096
:1007100092E00E94870002C080E090E0A1960FB6B0
:10072000F894DEBF0FBECDBFDF91CF911F910F9127
:10073000BF90AF909F908F900895CF92DF92EF92ED
:10074000FF920F931F93CF93DF9300D000D0CDB7CC
:10075000DEB77C01890149835A836B837C830E94C5
:100760000B0F49815A816B817C81CB01BA010E94B8
:10077000501080E00E941E0F67010E0D1F1DC01655
:10078000D10639F080E00E941E0FF60181936F01BF
:10079000F6CF87E092E00F900F900F900F90DF91CF
:1007A000CF911F910F91FF90EF90DF90CF900C941D
:1007B000BA0F0E94A6161F920F920FB60F92112425
:1007C0002F933F934F935F936F937F938F939F9359
:1007D000AF93BF93EF93FF938BE092E00E94F900F9
:1007E000FF91EF91BF91AF919F918F917F916F9109
:1007F0005F914F913F912F910F900FBE0F901F90DF
:1008000018951F920F920FB60F9211242F938F936A
:100810009F93EF93FF93E0911B02F0911C02808164
:10082000E0912102F091220282FD12C0908180911C
:1008300024028F5F8F7320912502821751F0E0917F
:100840002402F0E0E55FFD4F958F8093240201C004
:100850008081FF91EF919F918F912F910F900FBE0B
:100860000F901F90189590E0FC01E859FF4F3491CC
:10087000FC01EC55FF4F2491FC01E057FF4FE49140
:10088000EE2309F43BC0332339F1333091F038F4CF
:100890003130A9F0323001F584B58F7D12C0373088
:1008A00091F03830A1F03430B9F4809180008F7D20
:1008B00003C0809180008F77809380000DC084B545
:1008C0008F7784BD09C08091B0008F7703C080917D
:1008D000B0008F7D8093B000F0E0EE0FFF1FE45872
:1008E000FF4FA591B4918FB7F894EC91611103C0BB
:1008F00020952E2301C02E2B2C938FBF0895CF93CC
:1009000086E30E94030F60E070E0CB010E94090FB4
:10091000C0918901C11105C060E374E280E190E0FB
:1009200004C064E370E280E390E00E94F3119093CE
:10093000460180934501C11105C064E474E280E181
:1009400090E004C068E470E280E390E00E94F3115C
:100950009093480180934701CF91089580910702B9
:10096000909108028C7F9F709093080280930702F9
:100970000E940B0F4091070250910802809189015B
:10098000811105C068EE74E280E190E004C06CEF74
:1009900070E280E390E00E94D90F0E9483102091C2
:1009A00007023091080282179307B9F787E092E0B7
:1009B0000C94BA0FEF92FF920F931F93CF93DF9394
:1009C0008C0180910702909108029F709093080219
:1009D000809307020E940B0F40910702509108027A
:1009E0004C7F5F7080918901811105C068EE74E2CF
:1009F00080E190E004C06CEF70E280E390E00E9440
:100A0000D90F8CEFE82E8FE0F82EC0910702D0911D
:100A100008020E948310C81BD90BDF70C7018C1B12
:100A20009D0B90930A02809309028017910768F347
:100A300087E092E0DF91CF911F910F91FF90EF90AF
:100A40000C94BA0FFF920F931F93CF93DF931F92D3
:100A5000CDB7DEB7172F082FF92E8091090290919C
:100A60000A02049730F484E090E069830E94DA047B
:100A7000698120910702309108022C5F3F4F30932B
:100A80000802209307022091090230910A022450A3
:100A9000310930930A0220930902862F0E941E0F0B
:100AA000812F0E941E0F802F0E941E0F8F2D0F90EE
:100AB000DF91CF911F910F91FF900C941E0F60E07A
:100AC00070E0CB010E94090F81E00E94030F86E2D3
:100AD0000E94030F80E00E94030F80E090E00C94DE
:100AE000DA044F925F926F927F928F929F92AF92B1
:100AF000BF92CF92DF92FF920F931F93CF93DF931A
:100B0000CDB7DEB7C758D1090FB6F894DEBF0FBE18
:100B1000CDBFF82E0E94F50E1FB7F89480918C017E
:100B2000811124C0EAE9F0E09491EEEAF0E08491CA
:100B3000E92FF0E0EE0FFF1FEA57FF4FA591B491A8
:100B4000EC91E82321F461E08AE00E9433048AE01A
:100B50000E94B4128CB580618CBD8CB580648CBD54
:100B60008DE00E94B4128BE00E94B41280918C013F
:100B70008F5F80938C011FBF84E00E940F0F81E084
:100B80008DBD82E40E94880F81E60E94880F80E07C
:100B90000E94880F88E40E94880F89E40E94880FD1
:100BA00088E60E94880FF2FE75C20E94F50E85E06D
:100BB000809364010E94B41282E00E940F0F809122
:100BC00064010E942B0F62E370E080E090E00E94DD
:100BD000430D1BE0115021F08FEF0E941E0FFACF42
:100BE00010928B0110928A0105E920E030E0A90102
:100BF00060E084E691E00E943B118FEF0E941E0F9F
:100C0000182F87FF0DC080918A0190918B0101966A
:100C100090938B0180938A01883E934071F73AC28A
:100C2000809164010E942B0F8FEF0E941E0F1130E4
:100C3000D9F607E82AEA31E040E050E068E084E6CF
:100C400091E00E943B110E94250F082F8FEF0E9418
:100C50001E0F8FEF0E941E0F8FEF0E941E0F8FEF4F
:100C60000E941E0F809164010E942B0F013009F039
:100C700010E010928B0110928A01111104C0812C96
:100C8000912C540105C0812C912CA12C60E4B62E2E
:100C900005E920E030E0A90167E384E691E00E94E5
:100CA0003B1184E691E00E942811A501940169E2BC
:100CB00084E691E00E943B1184E691E00E942811B5
:100CC00080FF14C080918A0190918B0101969093CE
:100CD0008B0180938A018C32914009F4DBC161E081
:100CE00070E080E090E00E94430DC7CF1123A1F196
:100CF0005AE0C52ED12C812C912C540105E920E01D
:100D000030E0A9016AE384E691E00E943B110E9471
:100D1000250F14E0BA2CA92C982C88248FEF0E9460
:100D20001E0F882A1150B1F78FEF0E941E0F80917D
:100D300064010E942B0FF1E0CF1AD108F9F6D5011A
:100D4000C4013EE1B695A795979587953A95D1F759
:100D500081708093650102C01092650184E00E9459
:100D60000F0FDD24D394DDBC01E010E022EC31E074
:100D700040E050E0BE016F5F7F4F84E691E00E944B
:100D8000A01189818B50823018F01092660102C048
:100D9000D092660104E010E026EC31E040E050E043
:100DA000BE016F5F7F4F84E691E00E94A0118981B0
:100DB0009A81AB81BC8129E0880F991FAA1FBB1FB4
:100DC0002A95D1F78093750190937601A0937701CE
:100DD000B09378019C01AD01235F3F4F4F4F5F4FB0
:100DE00001E010E0BE016F5F7F4F84E691E00E945A
:100DF000A011898190E090936801809367018091B0
:100E0000750190917601A0917701B09178019C01D4
:100E1000AD01225F3F4F4F4F5F4F02E010E0BE0138
:100E20006F5F7F4F84E691E00E94A01189819A81D3
:100E300090936A018093690180916701880F1092F5
:100E40006F0180937001809166014091750150910E
:100E5000760160917701709178019A01AB0181115F
:100E600082C02F5E3F4F4F4F5F4FBE016F5F7F4F7E
:100E700084E691E00E94A01189819A8190936C018F
:100E800080936B018091750190917601A09177011B
:100E9000B09178019C01AD012A5E3F4F4F4F5F4FEB
:100EA000BE016F5F7F4F84E691E00E94A0118981AF
:100EB0009A8190936E0180936D01409169015091E8
:100EC0006A0160E070E019E0440F551F661F771F4C
:100ED0001A95D1F78090750190907601A0907701D6
:100EE000B0907801840E951EA61EB71E80927901DF
:100EF00090927A01A0927B01B0927C01A0E0B0E0D8
:100F00000AE0880F991FAA1FBB1F0A95D1F7880E08
:100F1000991EAA1EBB1E80927D0190927E01A09216
:100F20007F01B092800140906B0150906C01612C68
:100F3000712C85E0440C551C661C771C8A95D1F7F2
:100F4000A0916F01B09170012EEF3FEF4FEF5FEF77
:100F50000E948616460E571E681E791E840C951C2C
:100F6000A61CB71C8FC02C5D3F4F4F4F5F4F04E056
:100F700010E0BE016F5F7F4F84E691E00E94A011F8
:100F800089809A80AB80BC808091750190917601B8
:100F9000A0917701B09178019C01AD01245D3F4F94
:100FA0004F4F5F4FBE016F5F7F4F84E691E00E941D
:100FB000A01109811A812B813C810093710110934A
:100FC00072012093730130937401609169017091F3
:100FD0006A018091750190917601A0917701B0919D
:100FE000780149E0B695A795979587954A95D1F7E9
:100FF000860F971FA11DB11D880C991CAA1CBB1C34
:10100000880E991EAA1EBB1E69E0880F991FAA1F91
:10101000BB1F6A95D1F78093790190937A01A093D1
:101020007B01B0937C01E0916701F0916801A90117
:1010300098012250310941095109DF010E948616A9
:10104000DC01CB01880D991DAA1DBB1D79E0880F1D
:10105000991FAA1FBB1F7A95D1F780937D019093AA
:101060007E01A0937F01B0938001EE0FFF1F8E1AC7
:101070009F0AA108B108B9E0880C991CAA1CBB1CE6
:10108000BA95D1F78092810190928201A09283015A
:10109000B092840160E070E08CE090E00E946D10FE
:1010A0008830C1F760E070E08CE090E00E946D1045
:1010B000192F12951F701093890110920802109237
:1010C00007028CEF9FE090930A028093090287E069
:1010D00092E00E94BA0F111105C064EC74E280E145
:1010E00090E004C064ED70E280E390E040E00E9494
:1010F0009112111105C06CE874E280E190E004C027
:1011000060E970E280E390E043E80E9491121111DF
:1011100005C060E974E280E190E004C064E970E237
:1011200080E390E0C957DF4F6883C758D040CC5761
:10113000DF4F7883C458D040CB57DF4F8883C558E2
:10114000D040CA57DF4F9883C658D0400E940B0F3B
:10115000C957DF4F6881C758D040CC57DF4F7881DF
:10116000C458D040CB57DF4F8881C558D040CA57AC
:10117000DF4F9881C658D0400E94501080E00E94F6
:101180001E0F80E00E941E0F082F87E092E00E9451
:10119000BA0F402F4068111105C060E974E280E188
:1011A00090E004C064E970E280E390E00E94911254
:1011B000CE0101966C0180E8F60111928A95E9F75B
:1011C0000E940B0F111105C060E974E280E190E00C
:1011D00004C064E970E280E390E00E946D108C7FAF
:1011E000CF57DF4F8883C158D040111105C06CE83C
:1011F00074E280E190E004C060E970E280E390E096
:101200000E946D108C7FCE57DF4F8883C258D0402C
:1012100082E0CD57DF4F8883C358D040CE018F572F
:101220009F4F0E943C1061E070E0CE018F579F4FAE
:101230000E94D810CE018F579F4F0E943C10CE01C4
:101240008F579F4F0E942810CE018F579F4F0E94AB
:101250003C1060EACE018F579F4F0E940611892BE8
:10126000B9F560E0CE018F579F4F0E940611892B80
:1012700079F5CE018F579F4F0E943C1061EACE0155
:101280008F579F4F0E940611892B11F5A12CB12C6D
:1012900061E070E0FFE7AF16B10411F060E070E0CC
:1012A000CE018F579F4F0E94D810F60181936F0196
:1012B000FFEFAF1ABF0A20E8A216B10449F7CE012A
:1012C0008F579F4F0E94281087E092E00E94BA0F2C
:1012D0008A818F3FF1F48B818130D9F48F2D8C7FFF
:1012E000F82E8C8181FF09C00E940B0F84E40E94BC
:1012F000880F87E092E00E94BA0F6CE770E0CE01A1
:1013000005960E94D31280E00E94600F0E94AE04F6
:10131000F7C0111105C068E274E280E190E004C0FA
:101320006CE270E280E390E024E833E040E050E0DB
:101330000E942112111105C06CE274E280E190E07C
:1013400004C060E370E280E390E02BE230E040E034
:1013500050E00E942112111105C060E374E280E1A7
:1013600090E004C064E370E280E390E020E233E0C8
:1013700040E050E00E942112111105C064E374E2C4
:1013800080E190E004C068E370E280E390E020E058
:1013900030E0A9010E942112111105C068E374E236
:1013A00080E190E004C06CE370E280E390E029E229
:1013B00030E040E050E00E942112111105C06CE3C2
:1013C00074E280E190E004C060E470E280E390E0C9
:1013D00024EF31E040E050E00E942112111105C0DD
:1013E00060E474E280E190E004C064E470E280E3D1
:1013F00090E02CE030E040E050E00E94211211111A
:1014000005C064E474E280E190E004C068E470E246
:1014100080E390E020EE31E040E050E00E942112B5
:10142000111105C068E474E280E190E004C06CE44E
:1014300070E280E390E020E030E0A9010E942112F8
:10144000111105C06CE474E280E190E004C060E535
:1014500070E280E390E02AE030E040E050E00E945B
:101460002112111105C06CE574E280E190E004C026
:1014700060E670E280E390E021E030E040E050E0A0
:101480000E942112111105C068E674E280E190E02B
:1014900004C06CE670E280E390E021E030E040E0E0
:1014A00050E00E942112111105C06CE674E280E147
:1014B00090E004C060E770E280E390E023E030E079
:1014C00040E050E00E942112111105C064E574E271
:1014D00080E190E004C068E570E280E390E040E0E5
:1014E0000E949112111105C060E674E280E190E063
:1014F00004C064E670E280E390E040E00E94911254
:1015000010918901111105C060E374E280E190E05F
:1015100004C064E370E280E390E00E94F3119093D2
:10152000460180934501111105C064E474E280E135
:1015300090E004C068E470E280E390E00E94F31160
:1015400090934801809347011092490110924A01FB
:1015500010924B0110924C01812C912C5401C50129
:10156000B40195600E94090F60E070E080E098E2AD
:101570000E94090F60E070E080E099E20E94090F8C
:101580009FEF891A990AA90AB90AE0E28E16910416
:10159000A104B10421F767E070E080E096E20E94C8
:1015A000090F0E945F0567E070E080E096E20E940C
:1015B000090F0E945F0567E070E080E096E20E94FC
:1015C000090F0E945F0580918901811108C024ECF8
:1015D000822E24E2922E20E1A22EB12C07C094ED9F
:1015E000892E90E2992E90E3A92EB12C8AE10E94D7
:1015F000030FC501B4010E94090F64E070E080E0B0
:1016000090E00E94090F60E870E080E090E00E94A6
:10161000090F0E947F0480E090E00E94DA04F0FE4F
:10162000E3C080E090E00E944E168C3709F4B4C00D
:1016300080E00E94030F0E947F0467E070E080E07A
:1016400096E20E94090F60E07FEF8FEF94E00E9426
:10165000090F65E570E080E090E10E94090F6FEFEF
:1016600070E080E090E10E94090F6FEF7FEF8FEF55
:1016700094E00E94090F89E00E94030F6FEF7FEF53
:101680008FEF90E00E94090F8AE00E94030F60E054
:1016900070E08FEF90E00E94090F85E10E94030F38
:1016A0008FEF0E94030F0E94AE0486E20E94030F98
:1016B00080E00E94030F80E090E00E94DA04812C19
:1016C000912C540180918901811105C08CE195E232
:1016D000A0E1B0E004C080E591E2A0E3B0E0BC018D
:1016E000CD01680D791D8A1D9B1DC957DF4F688389
:1016F000C758D040CC57DF4F7883C458D040CB5721
:10170000DF4F8883C558D040CA57DF4F9883C658EB
:10171000D0400E940B0FC957DF4F6881C758D04097
:10172000CC57DF4F7881C458D040CB57DF4F8881EA
:10173000C558D040CA57DF4F9881C658D0400E9444
:10174000501080E00E941E0F80E00E941E0F682F44
:1017500087E092E0C957DF4F6883C758D0400E94A6
:10176000BA0FC4010196C957DF4F6881C758D040EE
:101770000E945616FFEF8F1A9F0AAF0ABF0A28E190
:1017800082169104A104B10409F09CCF6CE780E0BB
:1017900090E00E94561628C0812C912C5401C4015F
:1017A00001960E944E16482F80918901811105C033
:1017B0008CE195E2A0E1B0E004C080E591E2A0E315
:1017C000B0E0BC01CD01680D791D8A1D9B1D0E94F2
:1017D00091128FEF881A980AA80AB80A98E1891618
:1017E0009104A104B104D9F6D0908901D11005C0AB
:1017F00064E075E280E190E004C068E171E280E3BA
:1018000090E0C957DF4F6883C758D040CC57DF4FAF
:101810007883C458D040CB57DF4F8883C558D04019
:10182000CA57DF4F9883C658D0400E940B0FC95744
:10183000DF4F6881C758D040CC57DF4F7881C458FC
:10184000D040CB57DF4F8881C558D040CA57DF4FB3
:101850009881C658D0400E949C0F80EB0E941E0FBA
:1018600084E00E941E0F87E092E00E94BA0F87E793
:1018700097E7DC018093850190938601A09387010F
:10188000B0938801F1FE5AC0F12C0FE114EFD11092
:1018900005C068E074E280E190E004C068E070E2B6
:1018A00080E390E00E9457122B013C01C801019790
:1018B000F1F7D11005C068E074E280E190E004C067
:1018C00068E070E280E390E00E9457124B015C01F7
:1018D00084189508A608B70886E0880C991CAA1CED
:1018E000BB1C8A95D1F7F0E88F16F7E39F06F1E865
:1018F000AF06F3E0BF0668F4D1101BC06CE675E2DA
:1019000080E190E04F2D0E949112F394EFE1FE12DE
:10191000BECFD11005C06CE074E280E190E004C05D
:101920006CE070E280E390E0A50194010E94211236
:1019300005C060E871E280E390E0E4CFC957DF4F73
:101940000FB6F894DEBF0FBECDBFDF91CF911F91D0
:101950000F91FF90DF90CF90BF90AF909F908F90AE
:101960007F906F905F904F9008953FB7F89480916B
:10197000010290910202A0910302B091040226B5E7
:10198000A89B05C02F3F19F00196A11DB11D3FBFB7
:10199000BA2FA92F982F8827820F911DA11DB11D45
:1019A000BC01CD0142E0660F771F881F991F4A9541
:1019B000D1F7089585ED8093BC008091BC0084FD33
:1019C000FCCF1092D60108954091B001262F30E04F
:1019D000240F311D21323105DCF42091D601243051
:1019E000C9F4FC0180E090E0861758F43091B00112
:1019F0002191DC01A257BE4FA30FB11D2C9301967C
:101A0000F3CF8091B001680F6093B00180E008953A
:101A100081E0089582E0089508958FEF9FEF089583
:101A20008FEF9FEF089580918D0190E091958195C2
:101A300091090895CF93DF9300D0CDB7DEB7CB01E6
:101A4000642F49835A830E94E40C4981842F5A8170
:101A5000952F0F900F90DF91CF910895CF93DF9343
:101A60001F92CDB7DEB7698361E0CE0101960E9477
:101A7000E40C81E090E00F90DF91CF9108950895FC
:101A800080E090E008958F929F92AF92BF92CF92A4
:101A9000DF92EF92FF926B017C010E94B50C4B012B
:101AA0005C01C114D104E104F104F1F00E94B50C11
:101AB000DC01CB0188199909AA09BB09883E93402A
:101AC000A105B10570F321E0C21AD108E108F108BF
:101AD00088EE880E83E0981EA11CB11CC114D104AD
:101AE000E104F10419F7DDCFFF90EF90DF90CF9084
:101AF000BF90AF909F908F9008951F920F920FB656
:101B00000F9211242F933F938F939F93AF93BF9383
:101B10008091FD019091FE01A091FF01B091000222
:101B20003091FC0123E0230F2D3720F40196A11DF5
:101B3000B11D05C026E8230F0296A11DB11D2093FB
:101B4000FC018093FD019093FE01A093FF01B093EF
:101B500000028091010290910202A0910302B091D3
:101B600004020196A11DB11D80930102909302020F
:101B7000A0930302B0930402BF91AF919F918F9104
:101B80003F912F910F900FBE0F901F9018951F92AD
:101B90000F920FB60F9211242F933F934F935F93A1
:101BA0006F937F938F939F93AF93BF93EF93FF9325
:101BB0008091B900887F803609F49CC068F588322E
:101BC00009F45BC090F4803109F454C038F48823E0
:101BD00009F4F6C0883009F44DC0F6C0883109F424
:101BE0004CC0803209F45DC0EFC0803409F468C095
:101BF00048F4803309F455C0883309F0E5C0809378
:101C0000D501D8C0803509F44FC0883509F45DC0CE
:101C1000883409F0D9C0D6C0883909F4C7C0A8F4FF
:101C2000883709F467C038F4883609F463C0803710
:101C300009F460C0C9C0883809F4B8C0803909F413
:101C40005FC0803809F0C0C05BC0803B09F486C02B
:101C500038F4803A09F466C0883A09F47FC0B4C009
:101C6000803C09F4A7C0883C09F4A4C0883B09F46F
:101C70008AC0AAC08091FB0110C09091FA018091A6
:101C8000F901981770F5E091FA0181E08E0F8093C9
:101C9000FA01F0E0E752FE4F80818093BB0085ECB3
:101CA00086C08093D5018EC0E091FA0181E08E0F4D
:101CB0008093FA018091BB00F0E0E752FE4F8083F1
:101CC0009091FA018091F9016EC0E091FA0181E0F2
:101CD0008E0F8093FA018091BB00F0E0E752FE4F37
:101CE00080838091D80181116DC081E08093D701FC
:101CF00084EA61C083E08093D6011092D401CFCFF3
:101D00008091D401803208F051C0E091D40181E08B
:101D10008E0F8093D4018091BB00F0E0EC54FE4F15
:101D20008083BDCF85EC8093BC001092D60180915A
:101D3000D401803230F4E091D401F0E0EC54FE4F55
:101D400010826091D40170E0E091B201F091B30192
:101D500084EB91E009951092D40136C084E0809321
:101D6000D6011092B1011092B001E091AE01F09154
:101D7000AF0109958091B001811105C081E0809388
:101D8000B00110928E01E091B10181E08E0F80933D
:101D9000B101F0E0E257FE4F80818093BB0090914B
:101DA000B1018091B001981708F479CF85E880934C
:101DB000BC000AC085EC8093BC001092D60104C020
:101DC0001092D5010E94DA0CFF91EF91BF91AF9173
:101DD0009F918F917F916F915F914F913F912F9143
:101DE0000F900FBE0F901F9018958AE00E94B412BA
:101DF00061E08AE00E94330485E00E94B41261E051
:101E000085E00C943304682F7FEF8FEF9FEF0C94E5
:101E100022050C94220561E08AE00C9433049CB501
:101E2000282F23709C7F922B9CBD2DB582FB992778
:101E300090F9822F8E7F892B8DBD08958EBD000075
:101E40000DB407FEFDCF8EB508958FEF0E941E0FD3
:101E500087FDFBCF089561E00E9433048FEF0C945F
:101E60001E0FCF93DF93D82FC92F40E052E06FEFC2
:101E700070E00E94C0168FEF8EBDED2FFC2FEF019A
:101E80002196DF01A150BE4FEA17FB0741F099915F
:101E90000DB407FEFDCF8EB59EBD8193F5CF0DB479
:101EA00007FEFDCF8EB58C938FEF0E941E0F8FEF34
:101EB0000E941E0F80916401DF91CF910C942B0F33
:101EC000CF93C1E0C80F837009F18091090290910E
:101ED0000A02892B21F481E090E00E94DA048091CB
:101EE00007029091080201969093080280930702DE
:101EF0008091090290910A02019790930A028093BF
:101F0000090280E00E941E0F8C2FDBCFCF91089535
:101F1000CF93C82F60E08AE00E9433048C2F0E9488
:101F20001E0F80E00E941E0F80E00E941E0F61E0E5
:101F30008AE0CF910C9433040F931F93CF93DF93D8
:101F40001F92CDB7DEB7162F082F60E08AE07983A5
:101F50000E943304802F80680E941E0F7981872F92
:101F60000E941E0F812F0F90DF91CF911F910F9133
:101F70000C941E0FCF93DF93EC010E940B0F809106
:101F80008901811105C080E090E8A0E1B0E004C0C3
:101F900080E090E8A0E3B0E0288139813F70BC0187
:101FA000CD01620F731F811D911DDF91CF910C94A4
:101FB0009C0FCF93DF9300D0CDB7DEB749835A8310
:101FC0000E949C0F4981842F0E941E0F5A81852FE9
:101FD0000E941E0F0F900F90DF91CF910C940B0F6A
:101FE000462F50E0440F551F482B809189018111E5
:101FF00005C060E974E280E190E004C064E970E249
:1020000080E390E00C94D90F1F93CF93DF93FC01F2
:10201000262F32813617C1F043E050E0461B5109AC
:102020003181432B30918901311105C06CE874E294
:1020300080E190E004C060E970E280E390E0122F5C
:10204000EF010E94D90F1A83DF91CF911F9108955C
:10205000CF93DF93EC0160E00E94041061E088817F
:102060000E94F00F61E0CE010E94041061E08881BF
:10207000DF91CF910C94F00FCF93DF93EC0161E0EF
:102080000E94041061E088810E94F00F60E0CE01A0
:102090000E94041060E08881DF91CF910C94F00FD2
:1020A0000F931F93CF93DF931F92CDB7DEB7162FF9
:1020B000082F60E08AE079830E943304802F0E9419
:1020C0001E0F7981872F0E941E0F812F0F90DF91A5
:1020D000CF911F910F910C941E0FCF93DF930E940D
:1020E000501080E00E941E0F80E00E941E0FC82F3B
:1020F000D0E080E00E941E0FD82B0E940B0FCE0173
:10210000DF91CF91089580918901811105C064EE1E
:1021100074E280E190E004C068EF70E280E390E058
:102120000E946D108F3F2FE09207C9F480E00E945B
:10213000710580E00E94030F0E947F0460E070E060
:1021400085E692E00E94090F67E070E080E096E289
:102150000E94090F0E945F050E94AE04FFCF089500
:102160000F931F93CF93DF93EC0161E00E94041063
:1021700061E088810E94F00F80918901811105C082
:1021800060E974E280E190E004C064E970E280E319
:1021900090E00E946D108C0160E088810E94F00F39
:1021A000C80181709927DF91CF911F910F910895F8
:1021B000EF92FF920F931F93CF93DF931F92CDB7B0
:1021C000DEB78C0188E0F82EE12CC80169830E94FB
:1021D000B010EE0CE82AFA946981F110F6CFC8012C
:1021E0000E94041061E0F80180810E94F00F60E01D
:1021F000F80180810E94F00F8E2D90E00F90DF910A
:10220000CF911F910F91FF90EF9008950F931F931F
:10221000CF93DF93EC01062F18E0602F70E0660F7C
:10222000672F661F770BCE010E94041061E0888142
:102230000E94F00F60E088810E94F00F000F1150A3
:1022400061F7CE01DF91CF911F910F910C94B010E7
:102250000F931F93CF938C010E94250FC82FF80175
:1022600080810E942B0F8FEF0E941E0F8C2FCF9129
:102270001F910F9108950F931F93CF93DF9300D079
:1022800000D0CDB7DEB7162F60E0FC0180812C8333
:102290003B834A8359830E94330461E070E080E00D
:1022A00090E00E94430D812F80640E941E0F59818F
:1022B000852F0E941E0F4A81842F0E941E0F3B8192
:1022C000832F0E941E0F2C81822F0E941E0F802FB1
:1022D0000F900F900F900F90DF91CF911F910F9162
:1022E0000C941E0F0F93CF93DF93EC0189819A0119
:1022F000AB01882341F089E056954795379527959E
:102300008A95D1F702C022273E7F05E961E1CE011F
:102310000E943B11CE010E94281160E088810E943A
:10232000330461E070E080E090E00E94430D8FEFA5
:102330000E941E0F8E3FD9F7DF91CF910F91089524
:102340006F927F928F929F92AF92BF92CF92DF92C5
:10235000EF92FF920F931F93CF93DF937C013B018A
:1023600049015A01BA01A9010E947211640181E078
:10237000D822C0E0D0E0CC15DD0529F08FEF0E9417
:102380001E0F2196F8CFE3015301A00EB11ECA150E
:10239000DB0529F08FEF0E941E0F8993F8CFA12C47
:1023A000B12CC2E0D2E0C01BD10BCC19DD09AC16B8
:1023B000BD0638F48FEF0E941E0FEFEFAE1ABE0A73
:1023C000F6CFF7018081DF91CF911F910F91FF90A0
:1023D000EF90DF90CF90BF90AF909F908F907F90C5
:1023E0006F900C942B0F0F931F93CF93DF9300D01C
:1023F00000D0CDB7DEB769837A838B839C830E943C
:102400000B0F69817A818B819C810E94501080E042
:102410000E941E0F80E00E941E0F082F10E080E037
:102420000E941E0F182B87E092E00E94BA0FC8018D
:102430000F900F900F900F90DF91CF911F910F9100
:102440000895CF93DF93CDB7DEB728970FB6F894F2
:10245000DEBF0FBECDBF2D833E834F835887698378
:102460007A838B839C830E940B0F69817A818B8195
:102470009C810E949C0F2D81822F0E941E0F3E8105
:10248000832F0E941E0F4F81842F0E941E0F58859C
:10249000852F0E941E0F87E092E028960FB6F894D1
:1024A000DEBF0FBECDBFDF91CF910C94BA0F0F935B
:1024B0001F93CF93DF9300D000D0CDB7DEB76C83EE
:1024C0007B8389839A830E940B0F6C817B81898136
:1024D0009A810E94501080E00E941E0F80E00E94AE
:1024E0001E0F682F80E06C830E941E0F782F80E003
:1024F0007B830E941E0F182F80E00E941E0F082F62
:1025000087E092E00E94BA0F6C817B81812F902F2F
:102510000F900F900F900F90DF91CF911F910F911F
:102520000895CF93DF9300D000D01F92CDB7DEB7D0
:102530004D8369837A838B839C830E940B0F69810F
:102540007A818B819C810E949C0F4D81842F0E94F7
:102550001E0F87E092E00F900F900F900F900F905A
:10256000DF91CF910C94BA0F90E0FC01EC55FF4F36
:102570002491FC01E057FF4F8491882399F090E06B
:10258000880F991FFC01EA57FF4FA591B491FC01F8
:10259000E458FF4F859194918FB7F894EC91E22B1A
:1025A000EC938FBF0895EF92FF920F931F93CF93F9
:1025B000DF937C018B018091090290910A028617BA
:1025C000970718F4CB010E94DA042091070230919A
:1025D0000802200F311F3093080220930702209138
:1025E000090230910A02201B310B30930A0220931A
:1025F0000902E7019C2F8D2F28960930110558F10B
:1026000008501109FE01389780810E941E0FFE01BB
:10261000379780810E941E0FFE01369780810E94AD
:102620001E0FFE01359780810E941E0FFE01349718
:1026300080810E941E0FFE01339780810E941E0F31
:10264000FE01329780810E941E0FFE01319780812A
:102650000E941E0FCFCFC92FD82F0C0F1D1FC017E0
:10266000D10721F089910E941E0FF9CFDF91CF9100
:102670001F910F91FF90EF900895789484B5826038
:1026800084BD84B5816084BD85B5826085BD85B516
:10269000816085BD80916E00816080936E00109294
:1026A000810080918100826080938100809181000F
:1026B00081608093810080918000816080938000A0
:1026C0008091B10084608093B1008091B0008160FE
:1026D0008093B00080917A00846080937A0080912A
:1026E0007A00826080937A0080917A008160809382
:1026F0007A0080917A00806880937A001092C100FD
:10270000E0911B02F0911C0282E08083E0911702AD
:10271000F09118021082E0911902F0911A028FECE8
:10272000808310922302E0911F02F091200286E044
:102730008083E0911D02F0911E0280818061808380
:10274000E0911D02F0911E02808188608083E091FB
:102750001D02F0911E02808180688083E0911D023D
:10276000F0911E0280818F7D808388E00E94B412E8
:1027700061E088E00E94330464E170E080E090E072
:102780000E94430D60E088E00E94330464E170E041
:1027900080E090E00E94430D61E088E00E943304F5
:1027A00064E170E080E090E00E94430D87E00E94C9
:1027B000710560E070E080E095E00E94090F84E21E
:1027C0000E94030F60E070E0CB010E94090F60E0FF
:1027D00070E0CB010E94090F84E291E00E948D011C
:1027E00061E070E080E095E00E94090F84E20E94C1
:1027F000030F6FEF7FEFCB010E94090F60E070E0E5
:10280000CB010E94090F8DE291E00E948D01CFE083
:10281000D0E005E010E06DE8E62EFF24F3947AE5C1
:10282000C72E72E0D72E0E94AE04809189018111DB
:1028300005C040E050E960E170E004C040E050E9CC
:1028400060E370E024E030E08DE491E00E949D03BD
:1028500080918901811105C04CE055E260E170E092
:1028600004C040E251E260E370E02DE030E081E539
:1028700091E00E949D0380918901811105C048E784
:1028800054E260E170E004C04CE750E260E370E0C5
:1028900021E030E08EE591E00E949D038091570198
:1028A0009091580121E0811530E8930709F420E068
:1028B00020935F01209155013091560144E0220F91
:1028C000331F4A95E1F754E0880F991F5A95E1F7B5
:1028D00090936101809360013093630120936201C2
:1028E0001092440110924301109242011092410152
:1028F00040915D01413809F063C0D0934401C09319
:1029000043011093420100934101509140012091F5
:102910005B0130915C018091590190915A015111F4
:1029200016C060913E0170913F01F901E61BF70B63
:10293000F0933D01E0933C0160913A0170913B01BD
:102940004C01861A970A9092390180923801609161
:102950003C0170913D01261B370B30933F012093C2
:102960003E016091380170913901861B970B90935D
:102970003B0180933A0137FF0BC010923F01109248
:102980003E0197FF12C010923B0110923A0102C023
:1029900097FDF9CF80913E0190913F018B35924098
:1029A00024F0D0923F01C0923E0180913A01909173
:1029B0003B018E38914024F0F0923B01E0923A01C5
:1029C0004093400180903E0190903F01092C000C03
:1029D000AA08BB08B7FE14C0E0910B02F0910C02EC
:1029E0000190F081E02D6DE28BE092E00995662781
:1029F0007727CB01681979098A099B094AE003C046
:102A00004AE0C501B4010E944C0342E050E065E396
:102A100071E08BE092E00E94870067E070E080E068
:102A200096E20E94090F61E070E080E09FE10E9461
:102A3000090F6FEF70E080E093E00E94090F60E003
:102A400070E080E090E80E94090F60E070E080E0B4
:102A500094E00E94090F60E570E080E090E10E9440
:102A6000090F69E070E080E09FE10E94090F60EAD1
:102A700070E080E09EE00E94090F209143013091B8
:102A8000440160913A0170913B01620F731F665FD0
:102A90007F4F84E0660F771F8A95E1F77F77CB0140
:102AA000770FAA0BBB0BAC01BD01706480913E0196
:102AB00090913F01820F931F0A9624E0880F991F7F
:102AC0002A95E1F79F77092E000CAA0BBB0B3FE07C
:102AD000880F991FAA1FBB1F3A95D1F74A015B01C6
:102AE000882A992AAA2ABB2AC501B4010E94090F83
:102AF000209143013091440160913A0170913B0172
:102B0000620F731F675B7F4F44E0660F771F4A9524
:102B1000E1F77F77CB01770FAA0BBB0BAC01BD01AF
:102B2000706480913E0190913F01820F931F855404
:102B30009F4FE4E0880F991FEA95E1F79F77092EF0
:102B4000000CAA0BBB0BFFE0880F991FAA1FBB1F2D
:102B5000FA95D1F74A015B01882A992AAA2ABB2A49
:102B6000C501B4010E94090F6FEF70E080E090E1B1
:102B70000E94090F6FEF7FEF8FEF94E00E94090F23
:102B800061E870E080E093E00E94090F61E070E08E
:102B900080E09FE10E94090F61E070E080E095E035
:102BA0000E94090F209141013091420160913A0148
:102BB00070913B01621B730BA4E0660F771FAA950F
:102BC000E1F77F77CB01770FAA0BBB0BAC01BD01FF
:102BD000706480913E0190913F01821B930BB4E0A1
:102BE000880F991FBA95E1F79F77092E000CAA0B61
:102BF000BB0B2FE0880F991FAA1FBB1F2A95D1F787
:102C00004A015B01882A992AAA2ABB2AC501B40174
:102C10000E94090F0E945F050E94830104CEEBE031
:102C2000F2E01382128288EE93E0A0E0B0E08483A9
:102C30009583A683B78324E031E03183208325EC9C
:102C400030E03587248724EC30E03787268720EC76
:102C500030E0318B208B21EC30E0338B228B22EC67
:102C600030E0358B248B26EC30E0378B268B118EB1
:102C7000128E138E148EE8EAF2E01382128284839D
:102C80009583A683B78386E191E091838083E4EB0B
:102C9000F2E080E5808381E081830895F999FECF99
:102CA00092BD81BDF89A992780B50895262FF9998C
:102CB000FECF1FBA92BD81BD20BD0FB6F894FA9A1F
:102CC000F99A0FBE01960895A1E21A2EAA1BBB1B0A
:102CD000FD010DC0AA1FBB1FEE1FFF1FA217B307E8
:102CE000E407F50720F0A21BB30BE40BF50B661FFE
:102CF000771F881F991F1A9469F7609570958095C2
:102D000090959B01AC01BD01CF0108950E949716DB
:102D1000A59F900DB49F900DA49F800D911D11242F
:102D20000895EE0FFF1F0590F491E02D0994A29FE6
:102D3000B001B39FC001A39F700D811D1124911D8F
:102D4000B29F700D811D1124911D089581E090E0C6
:102D5000F8940C94C7169111089581568A5108F47D
:102D6000805285580895FB01DC0104C08D910190CB
:102D7000801921F441505040C8F7881B990B0895E1
:102D8000DC0101C06D9341505040E0F70895F89484
:022D9000FFCF73
:102D9200000000001A018700B2006101E300C100D7
:102DA200D500000000002E0D1A0D400D0C0D130D64
:102DB200100D0D0D445831322E6A70670063617236
:082DC2002E706E67000D0A007F
:107E0000112484B714BE81FFF0D085E080938100F7
:107E100082E08093C00088E18093C10086E0809377
:107E2000C20080E18093C4008EE0C9D0259A86E02C
:107E300020E33CEF91E0309385002093840096BBD3
:107E4000B09BFECF1D9AA8958150A9F7CC24DD24C4
:107E500088248394B5E0AB2EA1E19A2EF3E0BF2EE7
:107E6000A2D0813461F49FD0082FAFD0023811F036
:107E7000013811F484E001C083E08DD089C08234E0
:107E800011F484E103C0853419F485E0A6D080C0E4
:107E9000853579F488D0E82EFF2485D0082F10E0AE
:107EA000102F00270E291F29000F111F8ED06801E7
:107EB0006FC0863521F484E090D080E0DECF843638
:107EC00009F040C070D06FD0082F6DD080E0C81688
:107ED00080E7D80618F4F601B7BEE895C0E0D1E017
:107EE00062D089930C17E1F7F0E0CF16F0E7DF06D8
:107EF00018F0F601B7BEE89568D007B600FCFDCFD4
:107F0000A601A0E0B1E02C9130E011968C91119780
:107F100090E0982F8827822B932B1296FA010C0160
:107F200087BEE89511244E5F5F4FF1E0A038BF0790
:107F300051F7F601A7BEE89507B600FCFDCF97BE46
:107F4000E89526C08437B1F42ED02DD0F82E2BD052
:107F50003CD0F601EF2C8F010F5F1F4F84911BD097
:107F6000EA94F801C1F70894C11CD11CFA94CF0C13
:107F7000D11C0EC0853739F428D08EE10CD085E9AC
:107F80000AD08FE07ACF813511F488E018D01DD067
:107F900080E101D065CF982F8091C00085FFFCCF94
:107FA0009093C60008958091C00087FFFCCF809118
:107FB000C00084FD01C0A8958091C6000895E0E648
:107FC000F0E098E1908380830895EDDF803219F02E
:107FD00088E0F5DFFFCF84E1DECF1F93182FE3DFCA
:107FE0001150E9F7F2DF1F91089580E0E8DFEE27F6
:047FF000FF270994CA
:027FFE00040479
:0400000300007E007B
:00000001FF